:10406200000000000000000000000000000000004E
:10407200000000000000000000000000000000003E
:10408200000000000000000000000000000000002E
:10409200000000000000000000000000000000001E
:1040A200000000000000000000000000000000000E
:1040B20000000000000000000000000000000000FE
:1040C20000000000000000000000000000000000EE
:1040D20000000000000000000000000000000000DE
:1040E20000000000000000000000000000000000CE
:1040F20000000000000000000000000000000000BE
:1041020000000000000000000000000000000000AD
:10411200000000000000000000000000000000009D
:10412200000000000000000000000000000000008D
:10413200000000000000000000000000000000007D
:10414200000000000000000000000000000000006D
:10415200000000000000000000000000000000005D
:103CCD005005210000000000000000000000000071
:103CDD000000005006310000000000000000000050
:103CED0000000000000050097B3F0712643FCA9B93
:103CFD00963FCA9B963F07126450096B3F800000A8
:103D0D003FE1490D3F97690C3E8E5DDF5003113F3A
:103D1D00768733C038E5674038E567BF768733501F
:103D2D0003013F800000C03B2CC0403687A0BF6D13
:103D3D00681E609009970000000000000000000060
:103D4D000000000000000000000000000000000066
:103D5D000000000000000000000000000000000056
:103D6D000000000000000000000000000000000046
:103D7D000000000000000000000000000000000036
:103D8D000000000000000000000000000000000026
:103D9D000000000000000000000000000000000016
:103DAD000000000000000000000000000000000006
:103DBD0000000000000000000000000000000000F6
:103DCD0000000000000054094C000000000000003D
:103DDD00000000000000000000000000004A098BF8
:103DED0000000000000000000000420960000042D9
:103DFD00064100004509430000000000450966002A
:043E0D0000000000B1
:104C0400C2B2C2B38FE87F01124C24D2B4C2B42220
:104C1400D2B2C2B38FE87F01124C24D2B4C2B42200
:104B53007F38124C047F14124C247F38124C047F8C
:104B630014124C247F38124C047F0C124C047F0621
:084B7300124C047F01024C0406
:0B4B2500900943E02430FBE4FD7F0416
:104B3000900D5BEBF0ED5401FDEF540FFFED6004C1
:104B4000EF4440FFEF4480FF124C04900D5BE0FF08
:034B5000024C1400
:10486700900DAAEBF0A3EAF0A3E9F0900DA8EFF002
:03487700A3EDF0BE
:10487A00E4900DADF0EF5401900DA8F0ED540FA3A4
:10488A00F0900DAAE0FBA3E0FAA3E0F9A3E0F58219
:10489A0075830012320AFBD39419748094804024E1
:1048AA00900DA9E0FFD3940F7480948050D3900D9B
:1048BA00A8E0FD124B30900DADE004F0900DA9E098
:0448CA0004F080BDB9
:0148CE0022C7
:10469B009009A71233A77A0479217B017D407C0016
:1046AB00900D8CEBF0A3EAF0A3E9F0A3ECF0A3EDF3
:0146BB00F00E
:1046BC00900D921233B300000000E4900D91F09035
:1046CC000D91E0FFD3900D90E09F7480F8900D8FCA
:1046DC00E0648098403A900D92E0FCA3E0FDA3E0EA
:1046EC00FEA3E0FF900D8CE0FBA3E0FAA3E0F990B1
:1046FC000D91E075F004A4F58285F08312337712E6
:10470C002CB4900D921233A7900D91E004F080AF71
:10471C00900D8FE0FCA3E0FDEC122FDAA804A905A4
:10472C00AA06AB07900D92E0FCA3E0FDA3E0FEA36C
:05473C00E0FF022EAEBB
:103F3B009009971233A77A0379217B017D407C008E
:103F4B00900D81ECF0A3EDF0900D7EEBF0A3EAF079
:033F5B00A3E9F0E7
:103F5E00A3E0FCA3E0FD1246AB900D831233A790B5
:103F6E000D871233B300000000E4900D8BF0900D1E
:103F7E008BE0FFD3900D82E09F7480F8900D81E06E
:103F8E006480984079900D87E0F8A3E0F9A3E0FAF9
:103F9E00A3E0FBC000C001C002C003900D7EE0FB99
:103FAE00A3E0FAA3E0F9900D8BE075F004A4F5827E
:103FBE0085F0831232EB900D83E0F8A3E0F9A3E0D5
:103FCE00FAA3E0FB122CB0C004C005C006C00790D7
:103FDE000D901233B340000000D007D006D005D0AC
:103FEE0004123A1DD003D002D001D000122CB4908E
:103FFE000D871233A7900D8BE004F0023F7C900DDD
:10400E0087E0FCA3E0FDA3E0FEA3E0FFC004C00533
:10401E00C006C007900D81E0FCA3E0FDEC122FDA84
:10402E00A804A905AA06AB07D007D006D005D00470
:10403E00122EAE900D871233A7900D901233B33F10
:10404E00000000900D87E0FCA3E0FDA3E0FEA3E0DE
:04405E00FF023A1D06
:1044910090099B1233A77A0379217B017D407C002F
:1044A100900D5EECF0A3EDF0900D5BEBF0A3EAF064
:0344B100A3E9F08C
:1044B4001232CB900D611233A7E4900D60F0900D91
:1044C40060E0FFD3900D5FE09F7480F8900D5EE094
:1044D4006480984059900D5BE0FBA3E0FAA3E0F9F7
:1044E400900D60E075F004A4F58285F0831232EB40
:1044F400900D61E0F8A3E0F9A3E0FAA3E0FB122F2A
:104504004B60234021900D5BE0FBA3E0FAA3E0F9AC
:10451400900D60E075F004A4F58285F0831232EB0F
:10452400900D611233A7900D60E004F08090900D1F
:0C45340061E0FCA3E0FDA3E0FEA3E0FFBB
:014540002258
:1045410090099F1233A77A0379217B017D407C007A
:10455100900D5EECF0A3EDF0900D5BEBF0A3EAF0B3
:03456100A3E9F0DB
:104564001232CB900D611233A7E4900D60F0900DE0
:1045740060E0FFD3900D5FE09F7480F8900D5EE0E3
:104584006480984057900D5BE0FBA3E0FAA3E0F948
:10459400900D60E075F004A4F58285F0831232EB8F
:1045A400900D61E0F8A3E0F9A3E0FAA3E0FB122F79
:1045B4004B5021900D5BE0FBA3E0FAA3E0F9900DD2
:1045C40060E075F004A4F58285F0831232EB900D5F
:1045D400611233A7900D60E004F08092900D61E0C9
:0A45E400FCA3E0FDA3E0FEA3E0FF4E
:0145EE0022AA
:104239009009A31233A77A0379217B017D407C0081
:10424900900D5BEBF0A3EAF0A3E9F0A3ECF0A3ED8A
:01425900F074
:10425A00900D611233B300000000E4900D60F090FD
:10426A000D60E0FFD3900D5FE09F7480F8900D5EC3
:10427A00E06480984067900D61E0F8A3E0F9A3E05C
:10428A00FAA3E0FBC000C001C002C003900D5BE0CE
:10429A00FBA3E0FAA3E0F9900D60E075F004A4F541
:1042AA008285F0831232EBC004C005C006C00790B5
:1042BA000D901233B340000000D007D006D005D0CD
:1042CA0004123A1DD003D002D001D000122CB490AF
:1042DA000D611233A7900D60E004F08082900D5EAC
:1042EA00E0FCA3E0FDEC122FDAA804A905AA06ABAC
:1042FA0007900D61E0FCA3E0FDA3E0FEA3E0FF024E
:02430A002EAED5
:1034CF00900A0B1233A7900D607401F0A37404F0EF
:1034DF007421A3F0A3E4F0A37440F07A0379217B65
:0434EF0001FD7C005F
:1034F300900D5EECF0A3EDF0900D5BEBF0A3EAF022
:03350300A3E9F049
:10350600A3E0FCA3E0FD1246AB900D661233A79034
:103516000D60E0FBA3E0FAA3E0F9A3E0FCA3E0FD65
:103526001246AB900D6A1233A7900D5BE0FBA3E049
:10353600FAA3E0F9A3E0FCA3E0FD123F4B900D6E69
:103546001233A7900D60E0FBA3E0FAA3E0F9A3E035
:10355600FCA3E0FD123F4B900D721233A7900D763F
:103566001233B300000000E4900D65F0900D65E0A5
:10357600FFD3900D5FE09F7480F8900D5EE064804D
:10358600984068900D76E0F8A3E0F9A3E0FAA3E08E
:10359600FBC000C001C002C003900D60E0FBA3E0C9
:1035A600FAA3E0F9900D65E075F004A4F58285F0C4
:1035B600831232EB900D5BE0FBA3E0FAA3E0F990F7
:1035C6000D65E075F004A4F58285F0831233771259
:1035D6002DA5D003D002D001D000122CB4900D76C8
:1035E6001233A7900D65E004F08081900D76E0FC23
:1035F600A3E0FDA3E0FEA3E0FFC004C005C006C033
:1036060007900D5EE0FCA3E0FDEC122FDAA804A9FA
:1036160005AA06AB07D007D006D005D004122EAEF9
:10362600900D761233A7900D6AE0FCA3E0FDA3E0AF
:10363600FEA3E0FF900D66E0F8A3E0F9A3E0FAA38D
:10364600E0FB122DA5A804A905AA06AB07900D76E6
:10365600E0FCA3E0FDA3E0FEA3E0FF122CB0900D7A
:103666007A1233A7900D7AE0FCA3E0FDA3E0FEA357
:10367600E0FFC004C005C006C007900D72E0FCA3C1
:10368600E0FDA3E0FEA3E0FF900D6EE0F8A3E0F9F5
:10369600A3E0FAA3E0FB122DA5A804A905AA06AB90
:1036A60007D007D006D005D004122EAE900D7A12A0
:1036B60033A7900D7AE0FCA3E0FDA3E0FEA3E0FFB4
:0136C60022E1
:1043D700900D6AEBF0A3EAF0A3E9F0900D6AE0FB19
:1043E700A3E0FAA3E0F91233E400000000900D6A9D
:1043F700E0FBA3E475F004123291A9F0FA1233E45A
:1044070000000000900D6AE0FBA3E475F00412328F
:1044170091A9F0FA1233E400000000900D6AE0FB66
:10442700A3E475F004123291A9F0FA1233E4000004
:104437000000900D6DE0FBA3E0FAA3E0F91233E46E
:1044470000000000900D6DE0FBA3E475F00412324C
:1044570091A9F0FA1233E400000000900D6DE0FB23
:10446700A3E475F004123291A9F0FA1233E40000C4
:104477000000900D6DE0FBA3E475F004123291A9E2
:0A448700F0FA1233E40000000022F6
:1036C700900D6A1233A7900D6EEBF0A3EAF0A3E911
:0136D700F002
:1036D8007B03EBD39400748094804057EB25E0255E
:1036E800E0242DF582E43406F583E0FCA3E0FDA395
:1036F800E0FEA3E0FFEB25E025E02431F582E43489
:1037080006F5831233A7EB25E025E0241DF582E4B6
:103718003405F583E0FCA3E0FDA3E0FEA3E0FFEBA6
:1037280025E025E02421F582E43405F5831233A74A
:103738001B809F900D6AE0FCA3E0FDA3E0FEA3E0E0
:10374800FF9005211233A79006311233B300000011
:1037580000900D747401F0900D74E0C394047480AB
:1037680094804003023840900631E0F8A3E0F9A3C2
:10377800E0FAA3E0FBC000C001C002C003900D71D5
:10378800E0FBA3E0FAA3E0F9A3E075F004A4F58256
:1037980085F0831232EB900D74E025E025E02421BA
:1037A800F582E43405F583E0F8A3E0F9A3E0FAA391
:1037B800E0FB122DA5D003D002D001D000122CB40A
:1037C8009006311233A7900631E0FCA3E0FDA3E098
:1037D800FEA3E0FFC004C005C006C007900D6EE060
:1037E800FBA3E0FAA3E0F9900D74E075F004A4F5EA
:1037F8008285F0831232EB900D74E025E025E024F9
:1038080031F582E43406F583E0F8A3E0F9A3E0FAA1
:10381800A3E0FB122DA5A804A905AA06AB07D007AB
:10382800D006D005D004122CB09006311233A790E0
:103838000D74E004F002375F900631E0F8A3E0F978
:10384800A3E0FAA3E0FBC000C001C002C003900DD2
:1038580071E0FBA3E0FAA3E0F91232CB900521E076
:10386800F8A3E0F9A3E0FAA3E0FB122DA5D003D05A
:1038780002D001D000122CB49006311233A7900662
:0C38880031E0FCA3E0FDA3E0FEA3E0FFA4
:013894002211
:10416200D296D2B5900D5E7401F0A37400F0A374E0
:1041720000F0A37401F0A37409F0A3746BF0A374AC
:1041820001F0A37409F0A3747BF0A3E4F0A37440DC
:07419200F07B017A007900C7
:0B419900900D5BEBF0A3EAF0A3E9F04F
:1041A400900D6D7401F0A37406F0A37431F07B01DB
:1041B4007A0579211243D7E4900D69F0900D69E0F6
:1041C400FFD3900D68E09F7480F8900D67E06480E1
:1041D400984061900D5EE0FBA3E0FAA3E0F9900D36
:1041E40069E075F004A4F58285F0831232EB900D3A
:1041F40064E0F9A3E0FAA3E0900D71C9F0A3EAF03A
:10420400A3E9F0900D61E0FBA3E0FAA3E0F9123614
:10421400C7900D5BE0FBA3E0FAA3E0F9900D69E021
:1042240075F004A4F58285F08312331B900D69E0C8
:0442340004F080888A
:014238002263
:0B203200900A27EBF0A3EAF0A3E9F00E
:10203D0078317C0C7D017BFF7A4079627E017F00D7
:10204D001231CBE4900D31F0A3F0900A2DE0FEA3F8
:10205D00E0FF900D31E0FCA3E0FDC39FEE6480F83E
:10206D00EC64809840030221B3A3ECF0A3EDF0E4FF
:10207D00A3F0A3F0A3F0A3F0900A2FE0FEA3E0FFDE
:10208D00C3900D38E09FEE6480F8900D37E06480CA
:10209D00985060900D33E0FAA3E0FB7C007D02FFC9
:1020AD00AE0212325B900D39EEF0A3EFF0E025E0B9
:1020BD00FF900D39E033FEC3EB9FFDEA9EFC900DC2
:1020CD0036E025E0FF900D35E033FEED2FFFEC3EC1
:1020DD00F0A3EFF0900D39E0FFA3E0900D33CFF0BA
:1020ED00A3EFF0900D38E004F0708D900D37E00403
:1020FD00F08085900D35E0FEA3E07802C333CE333A
:10210D00CED8F9FF900A2AE0FBA3E0FAA3E0F98FFD
:10211D00828E831232EBC004C005C006C007900D3D
:10212D0031E0FEA3E07802C333CE33CED8F92431AB
:10213D00F582740A3EF583D007D006D005D004127F
:10214D0033A7900D35E0FEA3E07802C333CE33CE36
:10215D00D8F92431F582740C3EF583E0FCA3E0FD43
:10216D00A3E0FEA3E0FFC004C005C006C007900DAC
:10217D0031E0FEA3E07802C333CE33CED8F924315B
:10218D00F582740B3EF583D007D006D005D004122E
:10219D0033A7900D32E004F06003022057900D310B
:1021AD00E004F0022057900A2AE0FBA3E0FAA3E036
:1021BD00F91233E43F800000900C311233B300006C
:1021CD000000900A2DE0FCA3E0FDEC122FDAA8042C
:1021DD00A905AA06AB077FDB7E0F7DC97C40122EB9
:1021ED00AE900D3F1233A7900D3FE0FCA3E0FDA391
:1021FD00E0FEA3E0FF1238DD900A2AE0FBA3E0FA2F
:10220D00A3E0F990000412331B900D3FE0FCA3E016
:10221D00FDA3E0FEA3E0FF1238F3122FC4900C359E
:10222D001233A7900D37E4F0A37402F0900A2DE05D
:10223D00FEA3E0FFC3900D38E09FEE6480F8900D93
:10224D0037E06480984003022426A3E024FFFF902A
:10225D000D37E034FFFEEF7802C333CE33CED8F91D
:10226D00FF900A2AE0FBA3E0FAA3E0F98F828E83A8
:10227D001232EB900004123377122DA5900D3F1200
:10228D0033A7900D37E0FEA3E07802C333CE33CEF3
:10229D00D8F9242DF582740C3EF583E0FCA3E0FD06
:1022AD00A3E0FEA3E0FF900C35E0F8A3E0F9A3E076
:1022BD00FAA3E0FB122DA5900D431233A7900D3814
:1022CD00E024FFFF900D37E034FFFEEF7802C333BB
:1022DD00CE33CED8F9FF900A2AE0FBA3E0FAA3E0B3
:1022ED00F98F828E831232EBC004C005C006C00781
:1022FD00900D37E0FEA3E07802C333CE33CED8F98C
:10230D00242DF582740C3EF583E0F8A3E0F9A3E0EB
:10231D00FAA3E0FBD007D006D005D004122CB4C030
:10232D0004C005C006C007900A2AE0FBA3E0FAA38B
:10233D00E0F99000041232EB900C35E0F8A3E0F9CF
:10234D00A3E0FAA3E0FB122CB4D003D002D001D04D
:10235D0000122DA5900D471233A7900D43E0F8A361
:10236D00E0F9A3E0FAA3E0FB900D3FE0FCA3E0FD54
:10237D00A3E0FEA3E0FF122CB0C004C005C006C050
:10238D0007900D37E0FEA3E07802C333CE33CED8ED
:10239D00F9FF900A2AE0FBA3E0FAA3E0F98F828E01
:1023AD0083D007D006D005D00412331B900D3FE02B
:1023BD00F8A3E0F9A3E0FAA3E0FB900D47E0FCA33E
:1023CD00E0FDA3E0FEA3E0FF122CB0900D43E0F87A
:1023DD00A3E0F9A3E0FAA3E0FB122CB0C004C00502
:1023ED00C006C007900D37E0FEA3E07802C333CEE0
:1023FD0033CED8F92431F582740C3EF583D007D055
:10240D0006D005D0041233A7900D38E004F0700605
:10241D00900D37E004F0022239E4900D31F0A3F075
:10242D00900A2EE024FEFF900A2DE034FFFED3909B
:10243D000D32E09FEE6480F8900D31E0648098409D
:10244D0003022607E0FEA3E07802C333CE33CED8D5
:10245D00F9FBAA062431F582740A3AF583E0FCA350
:10246D00E0FDA3E0FEA3E0FF900D4B1233A7743106
:10247D002BF582740B3AF583E0FCA3E0FDA3E0FE9F
:10248D00A3E0FF900D4F1233A7900D31E0FEA3E0B6
:10249D007802C333CE33CED8F92435F582740A3E93
:1024AD00F583E0FCA3E0FDA3E0FEA3E0FF900D4B60
:1024BD00E0F8A3E0F9A3E0FAA3E0FB122CB4C0040A
:1024CD00C005C006C007900D31E0FEA3E07802C341
:1024DD0033CE33CED8F9FBAA062431F582740A3AED
:1024ED00F583D007D006D005D0041233A774352B51
:1024FD00F582740B3AF583E0FCA3E0FDA3E0FEA3A7
:10250D00E0FF900D4FE0F8A3E0F9A3E0FAA3E0FBA4
:10251D00122CB4C004C005C006C007900D31E0FEFA
:10252D00A3E07802C333CE33CED8F9FBAA0624310B
:10253D00F582740B3AF583D007D006D005D004127E
:10254D0033A774352BF582740A3AF583E0F8A3E0CE
:10255D00F9A3E0FAA3E0FB900D4BE0FCA3E0FDA393
:10256D00E0FEA3E0FF122CB0C004C005C006C007FA
:10257D00900D31E0FEA3E07802C333CE33CED8F90F
:10258D00FBAA062435F582740A3AF583D007D006E6
:10259D00D005D0041233A774352BF582740B3AF5A0
:1025AD0083E0F8A3E0F9A3E0FAA3E0FB900D4FE080
:1025BD00FCA3E0FDA3E0FEA3E0FF122CB0C004C01D
:1025CD0005C006C007900D31E0FEA3E07802C333CD
:1025DD00CE33CED8F92435F582740B3EF583D00772
:1025ED00D006D005D0041233A7900D32E02402F0AE
:1025FD00900D31E03400F002242D900A2DE0FEA361
:10260D00E0FF7C007D0212325B900D33EEF0A3EF04
:10261D00F0900D3BE4F0A37402F0900A30E024FE3C
:10262D00FE900A2FE034FF900D3DF0A3CEF0C39045
:10263D000D3DE0648094805003022B53900D33E0E8
:10264D00FEA3E0FF7C007D0212325B900D33EEF0B5
:10265D00A3EFF0900D3CE025E0F0900D3BE033F062
:10266D00E4900D31F0A3F0900D34E024FFFF900DB8
:10267D0033E034FFFE900D3BE0FCA3E0FD12324948
:10268D00D3900D32E09FEE6480F8900D31E06480C0
:10269D00984003022B42E4900D39F0A3F0900D3BCE
:1026AD00E0FEA3E0FF7C007D0212325BEF24FFFF12
:1026BD00EE34FFFED3900D3AE09FEE6480F8900D5E
:1026CD0039E06480984003022B2BE0FCA3E0FD90E1
:1026DD000D33E0FEA3E0FF123249EF7802C333CE93
:1026ED0033CED8F9FF900A2AE0FBA3E0FAA3E0F974
:1026FD008F828E831232EBC004C005C006C00790D6
:10270D000D3BE0FEA3E0FF7C007D0212325B900DDD
:10271D0039E0FCA3E0FD900D32E02DFD900D31E090
:10272D003CCD2FFFED3EFEEF7802C333CE33CED836
:10273D00F92431F582740A3EF583E0F8A3E0F9A39C
:10274D00E0FAA3E0FBD007D006D005D004122DA5EA
:10275D00900D3F1233A7900D3BE0FEA3E0FF7C00F0
:10276D007D0212325B900D39E0FCA3E0FD900D323D
:10277D00E02DFD900D31E03CCD2FFFED3EFEEF78CD
:10278D0002C333CE33CED8F92431F582740B3EF526
:10279D0083E0FCA3E0FDA3E0FEA3E0FFC004C005C1
:1027AD00C006C007900D39E0FCA3E0FD900D33E0AD
:1027BD00FEA3E0FF123249EF7802C333CE33CED8F9
:1027CD00F92431F582740C3EF583E0F8A3E0F9A30A
:1027DD00E0FAA3E0FBD007D006D005D004122DA55A
:1027ED00900D431233A7900D39E0FCA3E0FD900D41
:1027FD0033E0FEA3E0FF123249EF7802C333CE334C
:10280D00CED8F9FF900A2AE0FBA3E0FAA3E0F98FF6
:10281D00828E831232EBC004C005C006C007900D36
:10282D0039E0FCA3E0FD900D33E0FEA3E0FF123292
:10283D0049EF7802C333CE33CED8F92431F5827403
:10284D000C3EF583E0F8A3E0F9A3E0FAA3E0FBD09A
:10285D0007D006D005D004122CB4900D471233A723
:10286D00900D3BE0FEA3E0FF7C007D0212325B90F9
:10287D000D39E0FCA3E0FD900D32E02DFD900D3102
:10288D00E03CCD2FFFED3EFEEF7802C333CE33CECD
:10289D00D8F92431F582740B3EF583E0FCA3E0FDFD
:1028AD00A3E0FEA3E0FFC004C005C006C007900D65
:1028BD003BE0FEA3E0FF7C007D0212325B900D3900
:1028CD00E0FCA3E0FD900D32E02DFD900D31E03CDC
:1028DD00CD2FFFED3EFEEF7802C333CE33CED8F9C8
:1028ED002431F582740A3EF583E0F8A3E0F9A3E004
:1028FD00FAA3E0FBD007D006D005D004122CB4907B
:10290D000D47E0F8A3E0F9A3E0FAA3E0FB122DA533
:10291D00900D471233A7900D43E0F8A3E0F9A3E023
:10292D00FAA3E0FB900D3FE0FCA3E0FDA3E0FEA3C6
:10293D00E0FF122CB0900D531233A7900D3FE0F82D
:10294D00A3E0F9A3E0FAA3E0FB900D47E0FCA3E0C0
:10295D00FDA3E0FEA3E0FF122CB0900D43E0F8A321
:10296D00E0F9A3E0FAA3E0FB122CB0900D5712335F
:10297D00A7900D39E0FEA3E0FF900D32E02FFF9000
:10298D000D31E03EFEEF7802C333CE33CED8F924BD
:10299D0031F582740A3EF583E0FCA3E0FDA3E0FE71
:1029AD00A3E0FF900D53E0F8A3E0F9A3E0FAA3E054
:1029BD00FB122CB0C004C005C006C007900D3BE053
:1029CD00FEA3E0FF7C007D0212325B900D39E0FC2E
:1029DD00A3E0FD900D32E02DFB900D31E03CFAEFC0
:1029ED002BFFEE3AFEEF7802C333CE33CED8F92467
:1029FD0031F582740A3EF583D007D006D005D00498
:102A0D001233A7AE02EB7802C333CE33CED8F924FE
:102A1D0031F582740B3EF583E0FCA3E0FDA3E0FEEF
:102A2D00A3E0FF900D57E0F8A3E0F9A3E0FAA3E0CF
:102A3D00FB122CB0C004C005C006C007900D3BE0D2
:102A4D00FEA3E0FF7C007D0212325B900D39E0FCAD
:102A5D00A3E0FD900D32E02DFB900D31E03CFAEF3F
:102A6D002BFFEE3AFEEF7802C333CE33CED8F924E6
:102A7D0031F582740B3EF583D007D006D005D00416
:102A8D001233A7AE02EB7802C333CE33CED8F9247E
:102A9D0031F582740A3EF583C083C082E0FCA3E069
:102AAD00FDA3E0FEA3E0FF900D53E0F8A3E0F9A332
:102ABD00E0FAA3E0FB122CB4D082D0831233A7909E
:102ACD000D39E0FEA3E0FF900D32E02FFF900D31A8
:102ADD00E03EFEEF7802C333CE33CED8F92431F584
:102AED0082740B3EF583C083C082E0FCA3E0FDA39E
:102AFD00E0FEA3E0FF900D57E0F8A3E0F9A3E0FAA4
:102B0D00A3E0FB122CB4D082D0831233A7900D3AE0
:102B1D00E004F07006900D39E004F00226AA900D45
:102B2D003BE0FEA3E0FF900D32E02FF0900D31E081
:102B3D003EF0022674900D3EE024FFF0900D3DE036
:102B4D0034FFF002263BE4900D37F0A3F0900A2DF0
:102B5D00E0FEA3E0FF900D37E0FCA3E0FDC39FEE88
:102B6D006480F8EC6480984003022CACAE04ED78E0
:102B7D0002C333CE33CED8F92431F582740B3EF532
:102B8D0083E0FCA3E0FDA3E0FEA3E0FFC004C005CD
:102B9D00C006C007900D37E0FEA3E07802C333CE28
:102BAD0033CED8F92431F582740B3EF583E0F8A3CA
:102BBD00E0F9A3E0FAA3E0FBD007D006D005D004DE
:102BCD00122DA5C004C005C006C007900D37E0FE4C
:102BDD00A3E07802C333CE33CED8F92431F5827415
:102BED000A3EF583E0FCA3E0FDA3E0FEA3E0FFC0F9
:102BFD0004C005C006C007900D37E0FEA3E07802C3
:102C0D00C333CE33CED8F92431F582740A3EF58321
:102C1D00E0F8A3E0F9A3E0FAA3E0FBD007D006D0DB
:102C2D0005D004122DA5D003D002D001D000122C56
:102C3D00B41245F3C004C005C006C007900A2DE0CC
:102C4D00FCA3E0FDEC122FDAA804A905AA06AB0738
:102C5D00D007D006D005D004122EAEC004C005C0DA
:102C6D0006C007900D37E0FEA3E07802C333CE33E4
:102C7D00CED8F9FF900A27E0FBA3E0FAA3E0F98F85
:102C8D00828E83D007D006D005D00412331B900D51
:0F2C9D0038E004F07006900D37E004F0022B5A77
:012CAC002205
:1049A900AD07AC06EC122FDA9009481233A790092B
:1049B90048E0FCA3E0FDA3E0FEA3E0FFE4FBFAF975
:1049C9007845122EAE9009481233A7900948E0FCA9
:0A49D900A3E0FDA3E0FEA3E0FF222F
:10496D00AD07AC06EC122FDA9009621233A790094D
:10497D0062E0FCA3E0FDA3E0FEA3E0FF7BEA7A7515
:10498D00798B783A122DA59009621233A79009629E
:0C499D00E0FCA3E0FDA3E0FEA3E0FF228D
:10002600124B537FF4124C2453B1FE53B2FE53B11C
:10003600FD43B2027FF4124C24124BE7124BC47FED
:1000460096124C247B30E4FD7F01124B307B3AE460
:10005600FD7F02124B307B30E4FD7F03124B3012E2
:100066004B257B31E4FD7F06124B307B3AE4FD7F66
:1000760007124B307B30E4FD7F08124B3090094469
:10008600E02430FBE4FD7F09124B307B32E4FD7F38
:100096000B124B307B3AE4FD7F0C124B307B30E485
:1000A600FD7F0D124B30900945E02430FBE4FD7FC7
:1000B6000E124B307B337D017F01124B307B3A7D34
:1000C600017F02124B307B307D017F03124B309053
:1000D6000946E02430FB7D017F04124B307B347DE2
:1000E600017F06124B307B3A7D017F07124B307B36
:1000F600307D017F08124B30900947E02430FB7DAC
:10010600017F09124B3030FC030201B9C296C2B519
:100116007FF4124C24D296D2B5E4900943F0A3F0B2
:10012600A3F0A3F0A3F0900966F0A3F0A3F0A3F068
:10013600A3F0900966E02430FBE4FD7F03124B3008
:10014600124B25900966E02430FBE4FD7F08124B34
:1001560030900944E02430FBE4FD7F09124B3090D7
:100166000968E02430FBE4FD7F0D124B3090094511
:10017600E02430FBE4FD7F0E124B30900969E02449
:1001860030FB7D017F03124B30900946E02430FBA3
:100196007D017F04124B3090096AE02430FB7D011B
:1001A6007F08124B30900947E02430FB7D017F0920
:1001B600124B3030FD030210247FF4124C24E490DD
:1001C6000995F0900995E0C39405748094805020B9
:1001D6007F05124C24900995E025E0248BF582E4F6
:1001E6003409F583E4F0A3F0900995E004F080D398
:1001F6007F0A124C24C296C2B5E4900995F0900984
:1002060095E0C394407480948040030202CA7F1E26
:10021600124C247F3B124B7B1249A9900995E0258D
:10022600E025E02400F582E43400F5831233A77F4D
:100236003D124B7B1249A9900995E025E025E02463
:1002460000F582E43401F5831233A77F3F124B7B1E
:100256001249A9900995E025E025E02400F582E4FD
:100266003402F5831233A77F43124B7B12496D90FC
:100276000995E025E025E02443F582E43406F5837C
:100286001233A77F45124B7B12496D900995E025E5
:10029600E025E02443F582E43407F5831233A77F93
:1002A60047124B7B12496D900995E025E025E02425
:1002B60043F582E43408F5831233A7900995E004E8
:1002C600F0020204124162900D5E7401F0A3740103
:1002D600F0A37400F0A37401F0A37409F0A3746B87
:1002E600F0A37401F0A37409F0A3747BF0A3E4F007
:1002F600A37440F07B017A017900124199900D5E5A
:100306007401F0A37402F0A37400F0A37401F0A3C7
:100316007409F0A3746BF0A37401F0A37409F0A33D
:10032600747BF0A3E4F0A37440F07B017A027900B9
:10033600124199900D5E7401F0A37406F0A3744304
:10034600F0A37401F0A37409F0A3746BF0A3740115
:10035600F0A37409F0A3747BF0A3E4F0A37440F057
:100366007B017A067943124199900D5E7401F0A3E0
:100376007407F0A37443F0A37401F0A37409F0A307
:10038600746BF0A37401F0A37409F0A3747BF0A35B
:10039600E4F0A37440F07B017A0779431241999007
:1003A6000D5E7401F0A37408F0A37443F0A3740106
:1003B600F0A37409F0A3746BF0A37401F0A374099D
:1003C600F0A3747BF0A3E4F0A37440F07B017A08F9
:1003D6007943124199900D5E7401F0A37400F0A365
:1003E6007400F0A37401F0A37403F0A37401F0A3E6
:1003F6007401F0A37403F0A37411F0A3E4F0A374E2
:1004060040F07B017A037921124199900D5E7401C7
:10041600F0A37401F0A37400F0A37401F0A37403B5
:10042600F0A37401F0A37401F0A37403F0A3741194
:10043600F0A3E4F0A37440F07B017A047921124121
:1004460099900D5E7401F0A37402F0A37400F0A3FA
:100456007401F0A37403F0A37401F0A37401F0A374
:100466007403F0A37411F0A3E4F0A37440F07B01CD
:100476007A0579311241997FC8124C24C296C2B5C9
:100486007A0379211246A5123F3B12449112454147
:1004960012423912469B9009AB1233A77A0479218E
:1004A600123F459009AF1233A77A04792112449B73
:1004B6009009B31233A77A04792112454B9009B7F4
:1004C6001233A77A0479211242439009BB1233A74B
:1004D6007B017A0579311246A79009BF1233A77BB3
:1004E600017A057931123F479009C31233A77B0180
:1004F6007A05793112449D9009C71233A77B017A98
:1005060005793112454D9009CB1233A77B017A0547
:1005160079311242459009CF1233A77B017A0679C9
:10052600431246A79009D31233A77B017A06794373
:10053600123F479009D71233A77B017A06794312F7
:10054600449D9009DB1233A77B017A067943124555
:100556004D9009DF1233A77B017A06794312424593
:100566009009E31233A77B017A0779431246A790D5
:1005760009E71233A77B017A077943123F479009AF
:10058600EB1233A77B017A07794312449D9009EF5A
:100596001233A77B017A07794312454D9009F3126E
:1005A60033A77B017A0779431242459009F7123344
:1005B600A77B017A0879431246A79009FB1233A755
:1005C6007B017A087943123F479009FF1233A77BD4
:1005D600017A08794312449D900A031233A77B01DE
:1005E6007A08794312454D900A071233A77B017AA0
:1005F6000879431242451234CF900A131233A7905A
:100606000D607401F0A37405F0A37431F0A3E4F057
:10061600A37440F07A0479211234EE900A1712334B
:10062600A7900D607401F0A37405F074311234E1E3
:10063600900A1B1233A7900D607401F0A37407F0A3
:10064600A37443F0A3E4F0A37440F07B017A067927
:1006560043FD7C001234F3900A1F1233A7900D60FD
:100666007401F0A37408F0A37443F0A3E4F0A37438
:1006760040F07B017A067943FD7C001234F3900A40
:10068600231233A7900D607401F0A37408F0A374CD
:1006960043F0A3E4F0A37440F07B017A077943FDAD
:1006A6007C001234F3900A271233A77F147EAE7DA6
:1006B600F77C3F9009CFE0F8A3E0F9A3E0FAA3E0C6
:1006C600FB122F4B600250787F587E397D347C3C7C
:1006D6009009CFE0F8A3E0F9A3E0FAA3E0FB122F1C
:1006E6004B6002500AE490094CF0A3F00207747FB5
:1006F600E57ED07D227C3E9009BBE0F8A3E0F9A31D
:10070600E0FAA3E0FB122F4B6002500A90094CE47A
:10071600F0A304F080587FE77EFB7D1D7CC1900A24
:1007260007E0F8A3E0F9A3E0FAA3E0FB122F4B9051
:10073600094C600250028030E4F0A37404F0802E6D
:100746007F587E397DB47C3C9009FFE0F8A3E0F940
:10075600A3E0FAA3E0FB122F4B90094C600250086D
:10076600E4F0A37402F08006E4F0A37403F07FA61D
:100776007E9B7D9C7C409009FFE0F8A3E0F9A3E016
:10078600FAA3E0FB122F4B600250557F777EBE7DA9
:100796001F7C3E9009C7E0F8A3E0F9A3E0FAA3E0C6
:1007A600FB122F4B60025009E490094EF0A3F08033
:1007B6005D7FF67E287DAC7CBF9009F3E0F8A3E070
:1007C600F9A3E0FAA3E0FB122F4B90094E6002500A
:1007D60008E4F0A37404F08035E4F0A304F0802E5E
:1007E6007F3B7EDF7D9B7C409009BBE0F8A3E0F970
:1007F600A3E0FAA3E0FB122F4B90094E60025008CB
:10080600E4F0A37402F08006E4F0A37403F07F968C
:100816007E437D2B7C3F9009E7E0F8A3E0F9A3E057
:10082600FAA3E0FB122F4B600250757F587E397D8C
:10083600347C3E9009C7E0F8A3E0F9A3E0FAA3E010
:10084600FB122F4B60025009E4900950F0A3F08090
:100856007D7F917EED7DBC7C3E9009AFE0F8A3E004
:10086600F9A3E0FAA3E0FB122F4B6002500A9009AD
:1008760050E4F0A304F080567FC77E4B7D677C4032
:1008860090099FE0F8A3E0F9A3E0FAA3E0FB122F9A
:100896004B90095060025030E4F0A37404F0802EAF
:1008A6007FBE7E9F7D0A7C409009AFE0F8A3E0F909
:1008B600A3E0FAA3E0FB122F4B9009506002500808
:1008C600E4F0A37402F08006E4F0A37403F07F71F1
:1008D6007E3D7D3A7C409009C7E0F8A3E0F9A3E0AD
:1008E600FAA3E0FB122F4B600250757F427E607DBB
:1008F600E57C3C9009F7E0F8A3E0F9A3E0FAA3E071
:10090600FB122F4B60025009E4900952F0A3F080CD
:100916007D7F1B7E2F7D3D7C3F9009EBE0F8A3E0B9
:10092600F9A3E0FAA3E0FB122F4B6002500A9009EC
:1009360052E4F0A304F080567FD57E787D297C3F73
:100946009009C3E0F8A3E0F9A3E0FAA3E0FB122FB5
:100956004B90095260025028E4F0A37404F0802EF4
:100966007F837EC07DBE7C409009F3E0F8A3E0F96A
:10097600A3E0FAA3E0FB122F4B9009526002500845
:10098600E4F0A37403F08006E4F0A37402F07FE3BE
:100996007EA57D437C409009A7E0F8A3E0F9A3E09B
:1009A600FAA3E0FB122F4B600250557FCF7EF77DF6
:1009B600537CBE9009CBE0F8A3E0F9A3E0FAA3E0EC
:1009C600FB122F4B6002502F7FB47EC87D467CC041
:1009D600900A07E0F8A3E0F9A3E0FAA3E0FB122FE0
:1009E6004B90095460025008E4F0A37404F0807937
:1009F600E4F0A304F08072E4900954F0A3F0806957
:100A06007F147EAE7DAF7CC09009B7E0F8A3E0F915
:100A1600A3E0FAA3E0FB122F4B6002502A7F6D7E03
:100A2600E77D6B7C409009EBE0F8A3E0F9A3E0FAE0
:100A3600A3E0FB122F4B900954600250028024E47D
:100A4600F0A37402F080227F667E667D167C40905D
:100A560009C7E0F8A3E0F9A3E0FAA3E0FB122F4BE5
:100A6600900954E4F0A37403F07F3F7E357DAE7C9D
:100A76003F9009CFE0F8A3E0F9A3E0FAA3E0FB1268
:100A86002F4B600250757F687E917DED7C3C90090E
:100A9600E3E0F8A3E0F9A3E0FAA3E0FB122F4B6032
:100AA600025009E4900956F0A3F0807D7F987E6E8F
:100AB6007DF27C3F9009FFE0F8A3E0F9A3E0FAA3FA
:100AC600E0FB122F4B6002500A900956E4F0A30493
:100AD600F080567FD37E4D7D5A7C4090099FE0F88A
:100AE600A3E0F9A3E0FAA3E0FB122F4B90095660AE
:100AF600025030E4F0A37404F0802E7FF87E537D1C
:100B06001B7C419009FFE0F8A3E0F9A3E0FAA3E01B
:100B1600FB122F4B90095660025008E4F0A37402B2
:100B2600F08006E4F0A37403F07F317E087D1C7C20
:100B3600409009EBE0F8A3E0F9A3E0FAA3E0FB128A
:100B46002F4B600250767F777EBE7D1F7C3E9009DC
:100B5600C7E0F8A3E0F9A3E0FAA3E0FB122F4B608D
:100B660002500AE4900958F0A3F0020C107F1B7E95
:100B76002F7D3D7C3F9009EBE0F8A3E0F9A3E0FA76
:100B8600A3E0FB122F4B6002500A900958E4F0A331
:100B960004F080767F8D7E977DDE7C3F90099BE01A
:100BA600F8A3E0F9A3E0FAA3E0FB122F4B90095853
:100BB60060025045E4F0A37404F0804E7F2B7E87DC
:100BC6007D587CC1900A07E0F8A3E0F9A3E0FAA3F8
:100BD600E0FB122F4B600250287F2B7E877D587CCE
:100BE600C1900A07E0F8A3E0F9A3E0FAA3E0FB123C
:100BF6002F4B9009586002500BE4F0A37403F08069
:100C060009900958E4F0A37402F07FE77EFB7DC3E8
:100C16007C41900A0BE0F8A3E0F9A3E0FAA3E0FB1D
:100C2600122F4B600250587FC37EF57D287C3E9084
:100C360009BBE0F8A3E0F9A3E0FAA3E0FB122F4B0F
:100C4600600250307F1B7E2F7D3D7C3F9009C7E0C0
:100C5600F8A3E0F9A3E0FAA3E0FB122F4B600250E1
:100C660009E490095AF0A3F0804390095AE4F0A3EE
:100C760004F0803990095AE4F0A37404F0802E7FC2
:100C8600917EED7D7C7C409009B3E0F8A3E0F9A36A
:100C9600E0FAA3E0FB122F4B90095A60025008E4D9
:100CA600F0A37402F08006E4F0A37403F07F587E8C
:100CB600397D7C7C409009F7E0F8A3E0F9A3E0FADF
:100CC600A3E0FB122F4B600250717F0C7E027D2B3E
:100CD6007C3E9009D7E0F8A3E0F9A3E0FAA3E0FB95
:100CE600122F4B6002500AE490095CF0A3F0020D4B
:100CF600B47F9A7E997D097C409009DBE0F8A3E0F9
:100D0600F9A3E0FAA3E0FB122F4B6002500B900907
:100D16005CE4F0A304F0020DB47FBA7E497D907CBA
:100D2600409009B3E0F8A3E0F9A3E0FAA3E0FB12D0
:100D36002F4B90095C6002503F80657F647E3B7D4F
:100D46004D7CC1900A07E0F8A3E0F9A3E0FAA3E01E
:100D5600FB122F4B600250287FF07EA77D467CC099
:100D66009009B7E0F8A3E0F9A3E0FAA3E0FB122F9D
:100D76004B90095C60025030E4F0A37403F0802EBF
:100D86007FE37EA57D1B7C3F9009BBE0F8A3E0F9DD
:100D9600A3E0FAA3E0FB122F4B90095C6002500817
:100DA600E4F0A37404F08006E4F0A37402F07FD3A9
:100DB6007E4D7DA27C3F9009CFE0F8A3E0F9A3E049
:100DC600FAA3E0FB122F4B600250787FE37EA57DED
:100DD6001B7C3E9009C7E0F8A3E0F9A3E0FAA3E084
:100DE600FB122F4B6002500AE490095EF0A3F0025A
:100DF6000E777FB47EC87D767C3F90099FE0F8A38E
:100E0600E0F9A3E0FAA3E0FB122F4B6002500A9030
:100E1600095EE4F0A304F080587F1D7E5A7D647C51
:100E2600C09009B7E0F8A3E0F9A3E0FAA3E0FB124B
:100E36002F4B90095E600250028030E4F0A37404E8
:100E4600F0802E7F3D7E0A7D237C419009FFE0F8ED
:100E5600A3E0F9A3E0FAA3E0FB122F4B90095E6032
:100E6600025008E4F0A37402F08006E4F0A37403D1
:100E7600F0E4900995F0900995E0FFC3940A748018
:100E860094804003020F10EF25E0244CF582E434F1
:100E960009F583E0FEA3E0FF4E701090098CE00494
:100EA600F0705E90098BE004F08056EF64014E709E
:100EB6001090098EE004F0700690098DE004F08031
:100EC60040EF64024E7010900990E004F0700690B6
:100ED600098FE004F0802AEF64034E7010900992A7
:100EE600E004F07006900991E004F08014EF6404C9
:100EF6004E700E900994E004F07006900993E00499
:100F0600F0900995E004F0020E7C90098BE0FFA3B7
:100F1600E0900960CFF0A3EFF0E4900641F0A3F073
:100F2600900995F0900995E0FFC39405748094802C
:100F36005045EF25E0248BF582E43409F583E0FE85
:100F4600A3E0FF900960E0FCA3E0FDD3EF9DEC6415
:100F560080F8EE6480984017900995E0FD9009604E
:100F6600EEF0A3EFF0EDFF900641E4F0A3EFF09072
:100F76000995E004F080AD900641E0FEA3E0FF4E47
:100F8600700D74432FF58274093EF583E004F0EF8B
:100F960064014E700E74432FF58274093EF583E0AA
:100FA6002402F0EF64024E700E74432FF58274092A
:100FB6003EF583E02403F0EF64034E700E74432F76
:100FC600F58274093EF583E02406F0EF64044E7062
:100FD6000E74432FF58274093EF583E02402F0D2A5
:100FE60096D2B5124B25900944E02430FBE4FD7FF0
:100FF60009124B30900945E02430FBE4FD7F0E12C8
:101006004B30900946E02430FB7D017F04124B30C3
:10101600900947E02430FB7D017F09124B3030FEFA
:101026000302010CE4900300F0900300E0C3940A6D
:1010360074809480400302010C7FF4124C24E490E7
:101046000995F0900995E0C394057480948050202A
:101056007F05124C24900995E025E0248BF582E467
:101066003409F583E4F0A3F0900995E004F080D309
:101076007F0A124C24C296C2B5E4900995F09009F5
:1010860095E0C3944074809480400302114A7F1E09
:10109600124C247F3B124B7B1249A9900995E025FF
:1010A600E025E02400F582E43400F5831233A77FBF
:1010B6003D124B7B1249A9900995E025E025E024D5
:1010C60000F582E43401F5831233A77F3F124B7B90
:1010D6001249A9900995E025E025E02400F582E46F
:1010E6003402F5831233A77F43124B7B12496D906E
:1010F6000995E025E025E02443F582E43406F583EE
:101106001233A77F45124B7B12496D900995E02556
:10111600E025E02443F582E43407F5831233A77F04
:1011260047124B7B12496D900995E025E025E02496
:1011360043F582E43408F5831233A7900995E00459
:10114600F0021084124162900D5E7401F0A37401E6
:10115600F0A37400F0A37401F0A37409F0A3746BF8
:10116600F0A37401F0A37409F0A3747BF0A3E4F078
:10117600A37440F07B017A017900124199900D5ECB
:101186007401F0A37402F0A37400F0A37401F0A339
:101196007409F0A3746BF0A37401F0A37409F0A3AF
:1011A600747BF0A3E4F0A37440F07B017A0279002B
:1011B600124199900D5E7401F0A37406F0A3744376
:1011C600F0A37401F0A37409F0A3746BF0A3740187
:1011D600F0A37409F0A3747BF0A3E4F0A37440F0C9
:1011E6007B017A067943124199900D5E7401F0A352
:1011F6007407F0A37443F0A37401F0A37409F0A379
:10120600746BF0A37401F0A37409F0A3747BF0A3CC
:10121600E4F0A37440F07B017A0779431241999078
:101226000D5E7401F0A37408F0A37443F0A3740177
:10123600F0A37409F0A3746BF0A37401F0A374090E
:10124600F0A3747BF0A3E4F0A37440F07B017A086A
:101256007943124199900D5E7401F0A37400F0A3D6
:101266007400F0A37401F0A37403F0A37401F0A357
:101276007401F0A37403F0A37411F0A3E4F0A37453
:1012860040F07B017A037921124199900D5E740139
:10129600F0A37401F0A37400F0A37401F0A3740327
:1012A600F0A37401F0A37401F0A37403F0A3741106
:1012B600F0A3E4F0A37440F07B017A047921124193
:1012C60099900D5E7401F0A37402F0A37400F0A36C
:1012D6007401F0A37403F0A37401F0A37401F0A3E6
:1012E6007403F0A37411F0A3E4F0A37440F07B013F
:1012F6007A0579311241997FC8124C24C296C2B53B
:101306007B017A0379211246A7123F3B12449112C0
:10131600454112423912469B9009AB1233A77B0115
:101326007A047921123F479009AF1233A77B017ADD
:1013360004792112449D9009B31233A77B017A04E4
:10134600792112454D9009B71233A77B017A0479AA
:10135600211242459009BB1233A77B017A057931E8
:101366001246A79009BF1233A77B017A057931127D
:101376003F479009C31233A77B017A05793112449E
:101386009D9009C71233A77B017A05793112454D25
:101396009009CB1233A77B017A0579311242459029
:1013A60009CF1233A77B017A0679431246A7900923
:1013B600D31233A77B017A067943123F479009D7A8
:1013C6001233A77B017A06794312449D9009DB12FA
:1013D60033A77B017A06794312454D9009DF123314
:1013E600A77B017A0679431242459009E31233A797
:1013F6007B017A0779431246A79009E71233A77B48
:10140600017A077943123F479009EB1233A77B0114
:101416007A07794312449D9009EF1233A77B017A2C
:1014260007794312454D9009F31233A77B017A07DA
:1014360079431242459009F71233A77B017A08795E
:10144600431246A79009FB1233A77B017A0879431A
:10145600123F479009FF1233A77B017A087943129E
:10146600449D900A031233A77B017A0879431245FB
:101476004D900A071233A77B017A08794312424539
:101486001234CF900A131233A7900D607401F0A3A3
:101496007405F0A37431F0A3E4F0A37440F07B016B
:1014A6007A047921FD7C001234F3900A171233A7CF
:1014B600900D607401F0A37405F0A374311234E248
:1014C600900A1B1233A7900D607401F0A37407F005
:1014D600A37443F0A3E4F0A37440F07B017A067989
:1014E60043FD7C001234F3900A1F1233A7900D605F
:1014F6007401F0A37408F0A37443F0A3E4F0A3749A
:1015060040F07B017A067943FD7C001234F3900AA1
:10151600231233A7900D607401F0A37408F0A3742E
:1015260043F0A3E4F0A37440F07B017A077943FD0E
:101536007C001234F3900A271233A77F147EAE7D07
:10154600F77C3F9009CFE0F8A3E0F9A3E0FAA3E027
:10155600FB122F4B600250787F587E397D347C3CDD
:101566009009CFE0F8A3E0F9A3E0FAA3E0FB122F7D
:101576004B6002500AE490094CF0A3F00216047F77
:10158600E57ED07D227C3E9009BBE0F8A3E0F9A37E
:10159600E0FAA3E0FB122F4B6002500A90094CE4DC
:1015A600F0A304F080587FE77EFB7D1D7CC1900A86
:1015B60007E0F8A3E0F9A3E0FAA3E0FB122F4B90B3
:1015C600094C600250028030E4F0A37404F0802ECF
:1015D6007F587E397DB47C3C9009FFE0F8A3E0F9A2
:1015E600A3E0FAA3E0FB122F4B90094C60025008CF
:1015F600E4F0A37402F08006E4F0A37403F07FA67F
:101606007E9B7D9C7C409009FFE0F8A3E0F9A3E077
:10161600FAA3E0FB122F4B600250557F777EBE7D0A
:101626001F7C3E9009C7E0F8A3E0F9A3E0FAA3E027
:10163600FB122F4B60025009E490094EF0A3F08094
:101646005D7FF67E287DAC7CBF9009F3E0F8A3E0D1
:10165600F9A3E0FAA3E0FB122F4B90094E6002506B
:1016660008E4F0A37404F08035E4F0A304F0802EBF
:101676007F3B7EDF7D9B7C409009BBE0F8A3E0F9D1
:10168600A3E0FAA3E0FB122F4B90094E600250082C
:10169600E4F0A37402F08006E4F0A37403F07F96EE
:1016A6007E437D2B7C3F9009E7E0F8A3E0F9A3E0B9
:1016B600FAA3E0FB122F4B600250757F587E397DEE
:1016C600347C3E9009C7E0F8A3E0F9A3E0FAA3E072
:1016D600FB122F4B60025009E4900950F0A3F080F2
:1016E6007D7F917EED7DBC7C3E9009AFE0F8A3E066
:1016F600F9A3E0FAA3E0FB122F4B6002500A90090F
:1017060050E4F0A304F080567FC77E4B7D677C4093
:1017160090099FE0F8A3E0F9A3E0FAA3E0FB122FFB
:101726004B90095060025030E4F0A37404F0802E10
:101736007FBE7E9F7D0A7C409009AFE0F8A3E0F96A
:10174600A3E0FAA3E0FB122F4B9009506002500869
:10175600E4F0A37402F08006E4F0A37403F07F7152
:101766007E3D7D3A7C409009C7E0F8A3E0F9A3E00E
:10177600FAA3E0FB122F4B600250757F427E607D1C
:10178600E57C3C9009F7E0F8A3E0F9A3E0FAA3E0D2
:10179600FB122F4B60025009E4900952F0A3F0802F
:1017A6007D7F1B7E2F7D3D7C3F9009EBE0F8A3E01B
:1017B600F9A3E0FAA3E0FB122F4B6002500A90094E
:1017C60052E4F0A304F080567FD57E787D297C3FD5
:1017D6009009C3E0F8A3E0F9A3E0FAA3E0FB122F17
:1017E6004B90095260025028E4F0A37404F0802E56
:1017F6007F837EC07DBE7C409009F3E0F8A3E0F9CC
:10180600A3E0FAA3E0FB122F4B90095260025008A6
:10181600E4F0A37403F08006E4F0A37402F07FE31F
:101826007EA57D437C409009A7E0F8A3E0F9A3E0FC
:10183600FAA3E0FB122F4B600250557FCF7EF77D57
:10184600537CBE9009CBE0F8A3E0F9A3E0FAA3E04D
:10185600FB122F4B6002502F7FB47EC87D467CC0A2
:10186600900A07E0F8A3E0F9A3E0FAA3E0FB122F41
:101876004B90095460025008E4F0A37404F0807998
:10188600E4F0A304F08072E4900954F0A3F08069B8
:101896007F147EAE7DAF7CC09009B7E0F8A3E0F977
:1018A600A3E0FAA3E0FB122F4B6002502A7F6D7E65
:1018B600E77D6B7C409009EBE0F8A3E0F9A3E0FA42
:1018C600A3E0FB122F4B900954600250028024E4DF
:1018D600F0A37402F080227F667E667D167C4090BF
:1018E60009C7E0F8A3E0F9A3E0FAA3E0FB122F4B47
:1018F600900954E4F0A37403F07F3F7E357DAE7CFF
:101906003F9009CFE0F8A3E0F9A3E0FAA3E0FB12C9
:101916002F4B600250757F687E917DED7C3C90096F
:10192600E3E0F8A3E0F9A3E0FAA3E0FB122F4B6093
:10193600025009E4900956F0A3F0807D7F987E6EF0
:101946007DF27C3F9009FFE0F8A3E0F9A3E0FAA35B
:10195600E0FB122F4B6002500A900956E4F0A304F4
:10196600F080567FD37E4D7D5A7C4090099FE0F8EB
:10197600A3E0F9A3E0FAA3E0FB122F4B900956600F
:10198600025030E4F0A37404F0802E7FF87E537D7D
:101996001B7C419009FFE0F8A3E0F9A3E0FAA3E07D
:1019A600FB122F4B90095660025008E4F0A3740214
:1019B600F08006E4F0A37403F07F317E087D1C7C82
:1019C600409009EBE0F8A3E0F9A3E0FAA3E0FB12EC
:1019D6002F4B600250767F777EBE7D1F7C3E90093E
:1019E600C7E0F8A3E0F9A3E0FAA3E0FB122F4B60EF
:1019F60002500AE4900958F0A3F0021AA07F1B7E59
:101A06002F7D3D7C3F9009EBE0F8A3E0F9A3E0FAD7
:101A1600A3E0FB122F4B6002500A900958E4F0A392
:101A260004F080767F8D7E977DDE7C3F90099BE07B
:101A3600F8A3E0F9A3E0FAA3E0FB122F4B900958B4
:101A460060025045E4F0A37404F0804E7F2B7E873D
:101A56007D587CC1900A07E0F8A3E0F9A3E0FAA359
:101A6600E0FB122F4B600250287F2B7E877D587C2F
:101A7600C1900A07E0F8A3E0F9A3E0FAA3E0FB129D
:101A86002F4B9009586002500BE4F0A37403F080CA
:101A960009900958E4F0A37402F07FE77EFB7DC34A
:101AA6007C41900A0BE0F8A3E0F9A3E0FAA3E0FB7F
:101AB600122F4B600250587FC37EF57D287C3E90E6
:101AC60009BBE0F8A3E0F9A3E0FAA3E0FB122F4B71
:101AD600600250307F1B7E2F7D3D7C3F9009C7E022
:101AE600F8A3E0F9A3E0FAA3E0FB122F4B60025043
:101AF60009E490095AF0A3F0804390095AE4F0A350
:101B060004F0803990095AE4F0A37404F0802E7F23
:101B1600917EED7D7C7C409009B3E0F8A3E0F9A3CB
:101B2600E0FAA3E0FB122F4B90095A60025008E43A
:101B3600F0A37402F08006E4F0A37403F07F587EED
:101B4600397D7C7C409009F7E0F8A3E0F9A3E0FA40
:101B5600A3E0FB122F4B600250717F0C7E027D2B9F
:101B66007C3E9009D7E0F8A3E0F9A3E0FAA3E0FBF6
:101B7600122F4B6002500AE490095CF0A3F0021C9D
:101B8600447F9A7E997D097C409009DBE0F8A3E0CA
:101B9600F9A3E0FAA3E0FB122F4B6002500B900969
:101BA6005CE4F0A304F0021C447FBA7E497D907C7D
:101BB600409009B3E0F8A3E0F9A3E0FAA3E0FB1232
:101BC6002F4B90095C6002503F80657F647E3B7DB1
:101BD6004D7CC1900A07E0F8A3E0F9A3E0FAA3E080
:101BE600FB122F4B600250287FF07EA77D467CC0FB
:101BF6009009B7E0F8A3E0F9A3E0FAA3E0FB122FFF
:101C06004B90095C60025030E4F0A37403F0802E20
:101C16007FE37EA57D1B7C3F9009BBE0F8A3E0F93E
:101C2600A3E0FAA3E0FB122F4B90095C6002500878
:101C3600E4F0A37404F08006E4F0A37402F07FD30A
:101C46007E4D7DA27C3F9009CFE0F8A3E0F9A3E0AA
:101C5600FAA3E0FB122F4B600250787FE37EA57D4E
:101C66001B7C3E9009C7E0F8A3E0F9A3E0FAA3E0E5
:101C7600FB122F4B6002500AE490095EF0A3F002BB
:101C86001D077FB47EC87D767C3F90099FE0F8A350
:101C9600E0F9A3E0FAA3E0FB122F4B6002500A9092
:101CA600095EE4F0A304F080587F1D7E5A7D647CB3
:101CB600C09009B7E0F8A3E0F9A3E0FAA3E0FB12AD
:101CC6002F4B90095E600250028030E4F0A374044A
:101CD600F0802E7F3D7E0A7D237C419009FFE0F84F
:101CE600A3E0F9A3E0FAA3E0FB122F4B90095E6094
:101CF600025008E4F0A37402F08006E4F0A3740333
:101D0600F0E4900995F0900995E0FFC3940A748079
:101D160094804003021DA0EF25E0244CF582E434B4
:101D260009F583E0FEA3E0FF4E701090098CE004F5
:101D3600F0705E90098BE004F08056EF64014E70FF
:101D46001090098EE004F0700690098DE004F08092
:101D560040EF64024E7010900990E004F070069017
:101D6600098FE004F0802AEF64034E701090099208
:101D7600E004F07006900991E004F08014EF64042A
:101D86004E700E900994E004F07006900993E004FA
:101D9600F0900995E004F0021D0C90098BE0FFA37A
:101DA600E0900960CFF0A3EFF0E4900641F0A3F0D5
:101DB600900995F0900995E0FFC39405748094808E
:101DC6005045EF25E0248BF582E43409F583E0FEE7
:101DD600A3E0FF900960E0FCA3E0FDD3EF9DEC6477
:101DE60080F8EE6480984017900995E0FD900960B0
:101DF600EEF0A3EFF0EDFF900641E4F0A3EFF090D4
:101E06000995E004F080AD900641E0FEA3E0FF4EA8
:101E1600704374432FF58274093EF583E004F07431
:101E2600432FF58274093EF583E0D39409748094B8
:101E3600804022900641E0FEA3E0FF2466F582740E
:101E4600093EF583E004F074432FF58274093EF5EC
:101E560083E024F6F0900641E0FEA3E0FF64014E25
:101E6600704474432FF58274093EF583E02402F032
:101E760074432FF58274093EF583E0D39409748088
:101E860094804022900641E0FEA3E0FF2466F5829E
:101E960074093EF583E004F074432FF58274093E1D
:101EA600F583E024F6F0900641E0FEA3E0FF64022D
:101EB6004E704474432FF58274093EF583E0240383
:101EC600F074432FF58274093EF583E0D3940974C8
:101ED6008094804022900641E0FEA3E0FF2466F550
:101EE6008274093EF583E004F074432FF582740989
:101EF6003EF583E024F6F0900641E0FEA3E0FF64A1
:101F0600034E704474432FF58274093EF583E02432
:101F160006F074432FF58274093EF583E0D39409E5
:101F2600748094804022900641E0FEA3E0FF246680
:101F3600F58274093EF583E004F074432FF582744C
:101F4600093EF583E024F6F0900641E0FEA3E0FFAB
:101F560064044E704474432FF58274093EF583E0A1
:101F66002402F074432FF58274093EF583E0D3947E
:101F760009748094804022900641E0FEA3E0FF248D
:101F860066F58274093EF583E004F074432FF5820A
:101F960074093EF583E024F6F0900966E02430FBF0
:101FA600E4FD7F03124B30124B25900966E0243086
:101FB600FBE4FD7F08124B30900944E02430FBE43B
:101FC600FD7F09124B30900968E02430FBE4FD7F69
:101FD6000D124B30900945E02430FBE4FD7F0E12D4
:101FE6004B30900969E02430FB7D017F03124B30B2
:101FF600900946E02430FB7D017F04124B309009A6
:102006006AE02430FB7D017F08124B30900947E0DF
:102016002430FB7D017F09124B30D296D2B57FE882
:0C202600124C24900300E004F002102F84
:0F4C24007D527C03ED1D70011C144C70F7DFF105
:014C3300225E
:10000300E4FFFEE4FDFC0DBD00010CED64074C7044
:0C001300F50FBF00010EEF64024E70E715
:01001F0022BE
:104BE70053873F759850438E40538EFE53890F432A
:0D4BF7008920758BDC758DDCC2ABD28E225F
:084C78008F993099FDC29922C9
:104ABF00900DC5EBF0A3EAF0A3E9F0900DC5E0FB74
:104ACF00A3E0FAA3E0F91231F16017900DC5A3E44A
:104ADF0075F0011232A7A9F0FA1231F1FF124C78DA
:034AEF0080D92249
:03002300024C3458
:0F4C3400C2AC309802C298309902C299D2AC3209
:10430C00900DAEEBF0A3EAF0A3E9F0A3ECF0FEA362
:10431C00EDF0FF7C037DE812325BEF2430FF900D53
:10432C00AEE0FBA3E0FAA3E0F9EF123237900DB147
:10433C00E0FEA3E0FF7C037DE812325B900DB1EC54
:10434C00F0FEA3EDF0FF7C007D6412325BEF2430B5
:10435C00FF900DAEE0FBA3E475F001123291A9F0D1
:10436C00FAEF123237900DB1E0FEA3E0FF7C007D36
:10437C006412325B900DB1ECF0FEA3EDF0FF7C000B
:10438C007D0A12325BEF2430FF900DAEE0FBA3E40C
:10439C0075F001123291A9F0FAEF123237900DB18B
:1043AC00E0FEA3E0FF7C007D0A12325B900DB1ECC5
:1043BC00F0A3EDF02430FF900DAEE0FBA3E475F01C
:0B43CC0001123291A9F0FAEF02323723
:1048CF00900DB3EBF0A3EAF0A3E9F0A3ECF0FEA395
:1048DF00EDF0FF7C007D0A12325BEF2430FF900D6C
:1048EF00B3E0FBA3E0FAA3E0F9EF123237900DB675
:1048FF00E0FEA3E0FF7C007D0A12325B900DB6EC68
:10490F00F0A3EDF02430FF900DB3E0FBA3E475F0BE
:0B491F0001123291A9F0FAEF023237CA
:0F4C4300D295D294120003C295120003C294229C
:0C4C6000C295D294120003D2950200030A
:0E4C5200A2019295D294120003C294020003B4
:0C4C6C00D294120003A295C2940200032F
:054A8B00900D5FEFF04B
:104A9000E4A3F0900D60E0C3940874809480501CEF
:104AA000900D5FE0FF25E0F09295D294120003C2D2
:0F4AB00094120003900D60E004F080D7024C6C6C
:10492A00E4900D60F0D295900D5FF0900D5FE0C3BA
:10493A009408748094805025A3E0FF25E0F0D29477
:10494A00120003900D60E0FFA295E433FEEF4EF0F3
:10495A00C294120003900D5FE004F080CE900D60C7
:02496A00E0FF6C
:01496C002228
:104BA100900D5BEFF0A3EDF0124C437FD0124A8BD6
:104BB100900D5BE0FF124A8B900D5CE0FF124A8B77
:034BC100024C6043
:054AF200900D5DEFF0E6
:104AF700124C437FD0124A8B900D5DE0FF124A8B18
:104B0700124C437FD1124A8B12492A900D5EEFF067
:0D4B1700D201124C52124C60900D5EE0FF76
:014B2400226E
:104BC400E4FD7F6B124BA17D077F19124BA17D047D
:104BD4007F1A124BA17D187F1B124BA17D1F7F1CD6
:034BE400024BA1E0
:054B7B00900D5BEFF05E
:104B8000124AF2900D5CEFF0900D5BE004FF124AC8
:104B9000F2AD07900D5CE0FE7C00E42DFFEC3EFEE4
:014BA00022F2
:1049E3007B017A0D79A6AD07AC061248CFE4900D92
:1049F300C8F0900DC8E0FFC39402748094805017F0
:104A030074A62FF582E4340DF583E0FF124C789001
:074A13000DC8E004F080DB98
:014A1A002279
:104A1B007B017A0D79A2AD07AC0612430CE4900D25
:104A2B00C9F0900DC9E0FFC39404748094805017B3
:104A3B0074A22FF582E4340DF583E0FF124C7890CD
:074A4B000DC9E004F080DB5F
:014A52002241
:103B8300900DB8EBF0A3EAF0A3E9F0A3ECF0A3EDFA
:103B9300F0C3EC648094805024900DBBE0FEA3E05E
:103BA300FFC3E49FFFE49E900DBBF0A3EFF0900DE5
:103BB300B8E0FBA3E0FAA3E0F9742D800D900DB8F3
:103BC300E0FBA3E0FAA3E0F97420123237900DBBB7
:103BD300E0FEA3E0FF7C277D1012325BEF2430FF71
:103BE300900DB8E0FBA3E475F001123291A9F0FA4D
:103BF300EF123237900DBBE0FEA3E0FF7C277D1070
:103C030012325B900DBBECF0FEA3EDF0FF7C037D65
:103C1300E812325BEF2430FF900DB8E0FBA3E475AC
:103C2300F001123291A9F0FAEF123237900DBBE096
:103C3300FEA3E0FF7C037DE812325B900DBBECF04A
:103C4300FEA3EDF0FF7C007D6412325BEF2430FFB6
:103C5300900DB8E0FBA3E475F001123291A9F0FADC
:103C6300EF123237900DBBE0FEA3E0FF7C007D64D2
:103C730012325B900DBBECF0FEA3EDF0FF7C007DF8
:103C83000A12325BEF2430FF900DB8E0FBA3E4751A
:103C9300F001123291A9F0FAEF123237900DBBE026
:103CA300FEA3E0FF7C007D0A12325B900DBBECF0BB
:103CB300A3EDF02430FF900DB8E0FBA3E475F00111
:0A3CC300123291A9F0FAEF02323735
:104A53007B017A0D799CAD07AC06123B83E4900D84
:104A6300CAF0900DCAE0FFC3940674809480501777
:104A7300749C2FF582E4340DF583E0FF124C78909B
:074A83000DCAE004F080DB26
:014A8A002209
:102CAD00023048E86480F8E933E83360110460F0DD
:102CBD00ED33EC337009E8FCE9FDEAFEEBFF22048D
:102CCD0060DED3EB9FEA9EE99DE8C2E78CF0C2F788
:102CDD0095F0400CE8CCF8E9CDF9EACEFAEBCFFB54
:102CED0012301385D0F05804700320D5B3E804706A
:102CFD00075002B2D502305292D5EC0460F7E4CC05
:102D0D00C0E0C398F8603B94186008400DD0E0FB1C
:102D1D0002302AE4FBFAC9FC8028E830E406E4C955
:102D2D00FBE4CAFCE830E305E4C9CACBFCE8540770
:102D3D006010F8C3E913F9EA13FAEB13FBEC13FC7B
:102D4D00D8F130F52FC3E49CFCEF9BFFEE9AFEED1E
:102D5D0099FDD0E0FBEF4E4D4C701222DB0302309B
:102D6D004FEC2CFCEF33FFEE33FEED33FDED30E792
:102D7D00EB02302AEF2BFFEE3AFEED39FDD0E0FBF2
:102D8D0050130BBB0003023052ED13FDEE13FEEF9B
:082D9D0013FFEC13FC02302AC5
:102DA500EC4D6011E8497017ED33EC3304600DE428
:102DB500FCFFFEFD22E933E8330470F802304812C7
:102DC500301358046009E4CC2481500628500902C8
:102DD500305228400302304FC0E0EB4A7044B980BE
:102DE50006D0E0FB02303EEF4E701CBD8008EBFFC5
:102DF500EAFEE9FD80EBE98DF0A4FEE5F0022E8EFA
:102E0500E9CDF9EAFEEBFFEF89F0A4FCE5F0CE8908
:102E1500F0A42EFFE435F0CD89F0A42DFEE435F0C5
:102E25008067EF4E7005BD80D780C3EF8BF0A4ACF3
:102E3500F0EE8BF0A42CFCE435F0F8EF8AF0A42C2E
:102E4500E5F038FCE433CB8DF0A42CFCE5F03BF841
:102E5500EE8AF0A42CFCE5F038F8E433CF89F0A431
:102E65002CFCE5F038CF3400CE89F0A42FFFE5F037
:102E75003EFEE433C98DF0A42EFEE5F039CD8AF08F
:102E8500A42FFFE5F03EFEE43DFD33D0E0FB500707
:102E95000BBB000F023052EC2CFCEF33FFEE33FE80
:062EA500ED33FD02302AAE
:102EAB00023052EC5D046005E859047003023048AF
:102EBB00123013580460F6EC4860F2EC7004FDFE1F
:102ECB00FF22C860DB2481C85009C39860025006FA
:102EDB0002304F9850CAF582E9294B4A7005AB82F4
:102EEB0002303E75F0007C1A7880C3EF9BEE9AEDB2
:102EFB0099400DC3EF9BFFEE9AFEED99FDE842F072
:102F0B00DC23ACF0D0E0FFD0E0FED0E0FDAB8220C4
:102F1B00E7101BEB60BAEC2CFCEF33FFEE33FEED4E
:102F2B0033FD02302AE803F830E705C0F075F000F6
:102F3B00EF2FFFEE33FEED33FD40B830E7C280AA32
:102F4B0074F8CC6480CCC86480C8F58204604FC32D
:102F5B00EB9FF5F0EA9E42F0E99D42F0E89C45F0CC
:102F6B00603C501DE5825FFFE582D313CB5BCBF456
:102F7B002B5582FB50280ABA002409B9002008807F
:102F8B001DE5825BFBE582D313CF5FCFF4C3132F19
:102F9B005582FF50090EBE00050DBD00010CC3EBA1
:102FAB009FF5F0EA9E42F0E99D42F0E89C45F06007
:092FBB0007CC4820E701B3EC2229
:102FC400ED33EC33600A047003BD8004ECB2E7FC1B
:012FD40022DA
:102FD50075F020800E75F010800575F0087D007E77
:102FE500007F003392D530D5031232BDEC3340104B
:102FF500EF33FFEE33FEED33FDEC33FCD5F0ED2280
:0E300500E5F0247EA2D513CC92E7CDCEFF22BB
:1045EF0002304822EDA2E7D2E7F9EC3340F260F354
:1045FF00B4FF08ED547F70E8023052F82481C2E016
:10460F00C0E0F40428FAC313FCED92E7FD900DBD52
:10461F001233A7EEA2E7E9BA7F02C3133400940066
:10462F00FA75F091A4E5F013F494FE8AF0A433E543
:10463F00F033248CD313FDE492E7FE7F007C3F75AB
:10464F008302ECC0E0F8EDC0E0F9EEC0E0FAEFC095
:10465F00E0FB8583F0900DBD12333F85F083122E62
:10466F00AED0E0FBD0E0FAD0E0F9D0E0F8122CB4F5
:10467F00ED6480FD30E7011CD583C7ED33CC33F8F3
:0C468F00D0E0A2E71328C313CC13FD22D7
:103895003A70FA83BCAAE9E43E81E0F8BF9DE9E607
:1038A5003F80000039283C1ABB9969663DA335E382
:1038B500BF255DE73FC90FDB418DDBCCC44936EE43
:1038C50045C9913FC5B0F83D3F800000C317F534A9
:1038D500452FFA73C60AFDDD12399E04A2E1920056
:1038E5001420E01590389574041230AE80301239EA
:1038F5009E30E102B20020E0EBA883A982900DC1C1
:103905001233A7898288839038A974041230AE8552
:1039150082F0900DC112335B85F082122DA5ED4C1E
:103925006007300004EC6480FC2212399EC0E0A8D8
:1039350083A982900DC11233A7898288839038CDDF
:1039450074031230AE8582F0900DC112335B85F0A1
:1039550082122DA5900DC1E0CCF0A3E0CDF0A3E03F
:10396500CEF0A3E0CFF09038BD74031230AED08214
:103975008582F0900DC112335B85F082E58230E0DF
:1039850007122EAEB2008096EFCBFFEECAFEEDC950
:10399500FDECC8FC122EAE8085ED33EC547FCC33A4
:1039A500920024605007D0E0D0E00230487B837A53
:1039B500F97922783E122DA5EDF933ECF8332481FF
:1039C5005011EFFBEEFA123077122FD5ECB2E7FC6F
:1039D500122CB4ED33EC33602F2403F8C313FCED44
:1039E50092E7FDE82481E4501FECF8EDF9EEFAEFDB
:1039F500FB123077EF04C2E0FCF582122FDFECB248
:103A0500E7FC122CB4E58203FAED33EC33600714BE
:083A150013FCED92E7FDEA222B
:103A1D00900D8C1233A7E4FFFE7D807C3F900D8CC2
:103A2D00E0F8A3E0F9A3E0FAA3E0FB122F4B700638
:103A3D00900D8C023B77900D8CE0FCA3E0FDA3E094
:103A4D00FEA3E0FF12305DFBA3E0FCA3E0FDA3E0CD
:103A5D00FEA3E0FF12305DFFB40108E4FFFE7D80A0
:103A6D007C3F22EF64046029EB64046024EBB40115
:103A7D0030E4FFFEFDFC900D90E0F8A3E0F9A3E02B
:103A8D00FAA3E0FB122F4B60084006E4FFFEFDFC9D
:103A9D0022900D901233B3FFFFFFFF900D90023B6C
:103AAD0077E4900D94F0A3F0FFFEFDFC900D8CE0FB
:103ABD00F8A3E0F9A3E0FAA3E0FB122F4B505F90BF
:103ACD000D90E0FCA3E0FDA3E0FEA3E0FF12307734
:103ADD00900D94EEF0A3EFF0FDCCEECCEC122FDABE
:103AED00C8ECC8C9EDC9CAEECACBEFCB900D90E0BA
:103AFD00FCA3E0FDA3E0FEA3E0FF122CB0E4FBFA73
:103B0D00F9F8122F4B708A900D8CE0FCA3E0FDA309
:103B1D00E0FEA3E0FF122FC4900D8C1233A7900D81
:103B2D008CE0FCA3E0FDA3E0FEA3E0FF123E469077
:103B3D000D90E0F8A3E0F9A3E0FAA3E0FB122DA5A8
:103B4D00124779900D901233A7900D95E030E01744
:103B5D00900D90E0FCA3E0FDA3E0FEA3E0FF122F8B
:103B6D00C4900D901233A7900D90E0FCA3E0FDA33F
:063B7D00E0FEA3E0FF22C0
:10301300E9D2E7C933E833F892D5EDD2E7CD33EC03
:0730230033FC5002B2D5227C
:10302A00EC30E7100FBF000C0EBE00080DBD000407
:10303A000BEB6014A2D5EB13FCED92E7FD2274FFB3
:10304A00FCFDFEFF22E480F8A2D574FF13FC7D800C
:03305A00E480EF20
:10305D00ED33EC33601004700FED547F7005740286
:0A306D0092E0227404220422E422FF
:10307700EDD2E7CD33EC3392D524814006E4FFFE51
:10308700FDFC22FCE4CFCECDCC24E0501174FF80B0
:10309700EDC3CC13CCCD13CDCE13CECF13CF04704D
:0730A700F030D5DE0232BD5E
:1030AE00C0E0EFFBEEFAEDF9ECF8122DA5D0E0F54D
:1030BE00F0EFFBEEFAEDF9ECF812334BA3A3A3A35A
:1030CE00E8C0E0E9C0E0EAC0E0EBC0E0C0F0122DDD
:1030DE00A5123367A3A3A3A3122CB4D0F0D0E0FBA8
:0D30EE00D0E0FAD0E0F9D0E0F8D5F0D4221F
:1047410033DA929E35B16011377FE5FE39218489D4
:104751003AAEC3FF3C1D955B3D6358473E75FDF086
:104761003F3172183F800000C2D5023052023048FA
:10477100BD80FA50F302304FED33EC330460F17B2E
:104781003B7AAA79B8783F122DA5ED33EC3392D557
:10479100247B5011A2D570DB500BED4480240450D2
:1047A10004A2D580CEEFFBEEFAEDF9ECF8123077EA
:1047B100EFF582F404FC122FDF122CB4C082904773
:1047C1004174091230BDED33CC33D0F092D525F0D0
:0A47D100A2D57001C313CC13FD2222
:103E12003E9248DA3ECCCCCD3F2AAAAB400000000D
:103E22003F8000003F9837F03FB504F33FD744FC92
:103E32003E3172173EB172173F0515913EDE5BD9D6
:103E4200D2018002C201EDD2E7F8CD33EC33047027
:103E52000BBD800592D502305202304840FBD3148C
:103E620060F2F5F07C3FEE7A00C39496C8948B40E2
:103E7200230AC89469C8941A401A0AC89468C89454
:103E82001F40110AC8945AC89425400805F07A00C8
:103E9200CDC2E7CDC0F0900D961233A7EA2323C01E
:103EA200E02422F582E4343EF583123367122CB407
:103EB200ECC0E0EDC0E0EEC0E0EFC0E012334B90AA
:103EC2000D9612335B122CB0D0E0FBD0E0FAD0E0BA
:103ED200F9D0E0B2E7F8122EAE900D961233A79009
:103EE2003E1274031230AE900D9612335B122DA562
:103EF200D0E0600F242EF582E4343EF5831233675E
:103F0200122CB4900D961233A7D0E0C3947FFDE437
:103F12009400FC122FDA7B187A727931783F122DD5
:103F2200A5900D9612335B122CB430010B7BD97A1B
:093F32005B79DE783E122DA52218
:030000000247DBD9
:0C47DB00787FE4F6D8FD758120024822AA
:1030FB00E709F608DFFA8046E709F208DFFA803EB7
:10310B0088828C83E709F0A3DFFA8032E309F608A3
:10311B00DFFA8078E309F208DFFA807088828C830B
:10312B00E309F0A3DFFA806489828A83E0A3F608BF
:10313B00DFFA805889828A83E0A3F208DFFA804C99
:10314B0080D280FA80C680D4806980F28033801070
:10315B0080A680EA809A80A880DA80E280CA8033D9
:10316B0089828A83ECFAE493A3C8C582C8CCC58351
:10317B00CCF0A3C8C582C8CCC583CCDFE9DEE78021
:10318B000D89828A83E493A3F608DFF9ECFAA9F0A0
:10319B00EDFB2289828A83ECFAE0A3C8C582C8CCF6
:1031AB00C583CCF0A3C8C582C8CCC583CCDFEADE0F
:1031BB00E880DB89828A83E493A3F208DFF980CC71
:1031CB0088F0EF60010E4E60C388F0ED2402B4046A
:1031DB000050B9F582EB2402B4040050AF23234511
:0631EB00822390314B73BA
:1031F100BB010689828A83E0225002E722BBFE02DC
:09320100E32289828A83E493220E
:10320A00BB010CE58229F582E5833AF583E0225079
:10321A0006E92582F8E622BBFE06E92582F8E222C3
:0D322A00E58229F582E5833AF583E49322DD
:10323700BB010689828A83F0225002F722BBFE0176
:02324700F32270
:10324900EF8DF0A4A8F0CF8CF0A428CE8DF0A42E99
:02325900FE2253
:10325B00C2D5EC30E709B2D5E4C39DFDE49CFCEE8E
:10326B0030E715B2D5E4C39FFFE49EFE1233FEC3D5
:10327B00E49DFDE49CFC80031233FE30D507C3E4D0
:06328B009FFFE49EFE22FD
:10329100C5F0F8A3E028F0C5F0F8E58215827002C8
:0632A1001583E038F02265
:1032A700A3F8E0C5F025F0F0E582158270021583DA
:0632B700E0C838F0E82237
:0E32BD00C3E49FFFE49EFEE49DFDE49CFC2222
:1032CB00BB010789828A8302333F5005E9F8023438
:1032DB0053BBFE05E9F802345F89828A8302334BC4
:1032EB00BB010DE58229F582E5833AF58302333F75
:1032FB005007E92582F8023453BBFE07E92582F813
:10330B0002345FE58229F582E5833AF58302334B7C
:10331B00BB010DE58229F582E5833AF5830233A7DC
:10332B005007E92582F8023485BBFE07E92582F8B0
:04333B0002349122A5
:0C333F00E0FCA3E0FDA3E0FEA3E0FF2201
:10334B00E493FC740193FD740293FE740393FF22C8
:0C335B00E0F8A3E0F9A3E0FAA3E0FB22F5
:10336700E493F8740193F9740293FA740393FB22BC
:10337700BB010DE58229F582E5833AF58302335BCC
:103387005007E92582F802346BBBFE07E92582F86E
:10339700023478E58229F582E5833AF583023367BB
:0C33A700ECF0A3EDF0A3EEF0A3EFF02299
:1033B300A8828583F0D083D0821233CA1233CA1213
:1033C30033CA1233CAE473E493A3C583C5F0C58338
:1033D300C8C582C8F0A3C583C5F0C583C8C582C864
:0133E30022C7
:1033E400BB010789828A830233B35005E9F80234AA
:0A33F4009DBBFE05E9F80234B62285
:1047E700020026E493A3F8E493A34003F68001F2C2
:1047F70008DFF48029E493A3F85407240CC8C333D3
:10480700C4540F4420C8834004F456800146F6DFA1
:10481700E4800B0102040810204080903CCDE47E28
:10482700019360BCA3FF543F30E509541FFEE49396
:10483700A360010ECF54C025E060A840B8E493A35D
:10484700FAE493A3F8E493A3C8C582C8CAC583CA88
:10485700F0A3C8C582C8CAC583CADFE9DEE780BE40
:013E110000B0
:1033FE00BC000BBE0029EF8DF084FFADF022E4CCB3
:10340E00F875F008EF2FFFEE33FEEC33FCEE9DEC7B
:10341E00984005FCEE9DFE0FD5F0E9E4CEFD22EDC1
:10342E00F8F5F0EE8420D21CFEADF075F008EF2F0B
:10343E00FFED33FD4007985006D5F0F222C398FDFC
:05344E000FD5F0EA2299
:0C345300E6FC08E6FD08E6FE08E6FF22A5
:0C345F00E2FC08E2FD08E2FE08E2FF22A9
:0D346B00E6FB08E6F908E6FA08E6CBF822D1
:0D347800E2FB08E2F908E2FA08E2CBF822D4
:0C348500ECF608EDF608EEF608EFF62273
:0C349100ECF208EDF208EEF208EFF22277
:10349D00D083D082E493F608740193F608740293F6
:0934AD00F608740393F67404732D
:1034B600D083D082E493F208740193F208740293E5
:0934C600F208740393F27404731C
:00000001FF
