:1007390004350000000002250000C18001230201E8
:1007490027050122101039000000000000000000F8
:1007590000000000000000033100000008292019F2
:060769001015005800020B
:0907A5007F381208837F057E00F5
:1007AE00E4FDFCC3ED9FEC9E5015E4FBFA0BBB0081
:0F07BE00010AEB647A4A70F50DBD00010C80E46E
:0107CD002209
:10083400D3EF9400EE9400400800EF1F70F21E8086
:02084400EF22A1
:10036F00AF8CEFFEAD8A7C00E42DF526EC3EF52533
:10037F00E4F58CF58AAC25AD261201D97B297A5C80
:10038F0079EF783F12002EE4FBFA79C87842120118
:10039F00371202128F388E378D368C35E47B64FA24
:1003AF00F9F81202CFEF2430FFE43EE43DE43CEFD6
:1003BF00540FFFE48F317B64FAF9F8AF38AE37ADE5
:1003CF0036AC351202CFAC00AD01AE02AF03E47B09
:1003DF000AFAF9F81202CFEF2430FFE43EE43DE4CD
:1003EF003CEF540FFFE48F327B64FAF9F8AF38AE6D
:1003FF0037AD36AC351202CFAC00AD01AE02AF0354
:10040F00E47B0AFAF9F81202CFEB2430FFEF540F16
:04041F00FF8F3322F6
:1007EC00D293000000000000000000000000000098
:0A07FC0000000000000000C293227C
:100806001207EC3094FDD28C2094FDC28C12036F3B
:070816007F507E000207AED7
:10084600D2927F147E00120834C2927F147E000278
:02085600083464
:0B088300C290C291D2928F8002084602
:0B088E00D290C291D2928F80020846E7
:10085800ED7006EF2480FC8004EF24C0FCAF040296
:02086800088303
:05086A002430FB7F05B6
:08086F00120858AF0302088EC5
:0C0877007F011208837F057E000207AE9F
:1007CE001207A51207A57F381208837F0812088327
:0E07DE007F011207A71F1207A77F0C020883D6
:05000300C2B1C2B322EE
:1006A900D2B15307FEE4FEEEC394087480948050DF
:1006B90015EF30E004D2B28002C2B2D2B3C2B3EFB6
:1006C900C313FF0E80E1E4FEEEC3940874809480A6
:1006D9005015ED30E004D2B28002C2B2D2B3C2B337
:0906E900EDC313FD0E80E1C2B166
:0106F20022E5
:10065C00D2B1430701E4FDEDC3940874809480503B
:10066C0015EF30E004D2B28002C2B2D2B3C2B3EF03
:10067C00C313FF0D80E1E4FDEDC3940874809480F6
:10068C005016EEC313FE30B20543068080035306AA
:0C069C007FD2B3C2B30D80E0C2B1AF0644
:0106A800222F
:1006F300E4FD7F8E1206A97D807F801206A9AD2AB4
:100703007F8C1206A9AD2B7F881206A9AD2C7F869C
:100713001206A9AD2D7F841206A9AD2E7F82120683
:10072300A9AD2F7F801206A9AD307F8A1206A97D5D
:06073300807F8E0206A982
:100770007F8C12065C8F2A7F8812065C8F2B7F8607
:1007800012065C8F2C7F8412065C8F2D7F821206EE
:100790005C8F2E7F8012065CEF547FF52F7F8A12CC
:0507A000065C8F302211
:10042300E5392430FBE4FD7F0212086FE53A2430FE
:10043300FB7F0312086FE53B2430FB7F0412086F38
:10044300E53C12086A7B2F7F0612086FE53D2430D6
:10045300FB7F0712086FE53E2430FB7F0812086F0D
:100463007B2F7F0912086FE53F2430FB7F0A1208B8
:100473006FE5402430FB7F0B12086FE5472430FB08
:100483007F0E12086FE5412430FB0D7F0412086FC5
:10049300E54212086A7B3A7F0612086FE54324306F
:1004A300FB7F0712086FE5442430FB7F0812086FB7
:1004B3007B3A7F0912086FE5452430FB7F0A120857
:0B04C3006FE5462430FB7F0B02086F42
:10000E00E4FFAEA0FDFCEE20E0010FEEC313FE0DEB
:0A001E00BD00010CED64084C70EC0D
:0100280022B5
:03000B00020008E8
:03000800D20032F1
:03002B000204CEFE
:0F04CE00C0E0C0D075D000C004C005C006C00794
:1004DD00C2CF0521E5216404706BF521120770E58B
:1004ED0029C4540FF539E529540FF53AE52AC454BA
:1004FD000FF53BE52A540FF53CE52BC4540FF53DA4
:10050D00E52B540FF53EE52CC4540FF53FE52C5467
:10051D000FF540E5305407F547E52DC4540FF5416F
:10052D00E52D540FF542E52EC4540FF543E52E5439
:10053D000FF544E52FC4540FF545E52F540FF5463F
:05054D0012000E8F34C6
:0D055200D007D006D005D004D0D0D0E032C4
:10081D0075CB3C75CAB0D2CAD2AD438901E4F58C13
:07082D00F58AD2A9D2AF2227
:1005EB007F327E001207AE1207CE1208771200037D
:1005FB007F0A7E001207AE12081D12042312080692
:10060B00C296E53275F00AA4FFE53175F064A42FAC
:10061B002533FFE5222527C39FF528E53425E0C3C5
:10062B009528F524AF34EF3395E04F6020D3E523C5
:10063B006480F8E5246480984004C29580BCC3E5CF
:10064B00236480F8E524648098D29580ADD29580A0
:01065B00A9F5
:10002E00EC4D6011E8497017ED33EC3304600DE4CC
:10003E00FCFFFEFD22E933E8330470F802027E1263
:10004E00024958046009E4CC248150062850090264
:10005E000288284003020285C0E0EB4A7044B98052
:10006E0006D0E0FB020274EF4E701CBD8008EBFF61
:10007E00EAFEE9FD80EBE98DF0A4FEE5F002011742
:10008E00E9CDF9EAFEEBFFEF89F0A4FCE5F0CE89AD
:10009E00F0A42EFFE435F0CD89F0A42DFEE435F06A
:1000AE008067EF4E7005BD80D780C3EF8BF0A4AC98
:1000BE00F0EE8BF0A42CFCE435F0F8EF8AF0A42CD3
:1000CE00E5F038FCE433CB8DF0A42CFCE5F03BF8E6
:1000DE00EE8AF0A42CFCE5F038F8E433CF89F0A4D6
:1000EE002CFCE5F038CF3400CE89F0A42FFFE5F0DC
:1000FE003EFEE433C98DF0A42EFEE5F039CD8AF034
:10010E00A42FFFE5F03EFEE43DFD33D0E0FB5007AB
:10011E000BBB000F020288EC2CFCEF33FFEE33FE1C
:06012E00ED33FD0202604A
:10013400020288EC5D046005E85904700302027E43
:10014400120249580460F6EC4860F2EC7004FDFEBB
:10015400FF22C860DB2481C85009C398600250069E
:100164000202859850CAF582E9294B4A7005AB8290
:1001740002027475F0007C1A7880C3EF9BEE9AED4E
:1001840099400DC3EF9BFFEE9AFEED99FDE842F016
:10019400DC23ACF0D0E0FFD0E0FED0E0FDAB822069
:1001A400E7101BEB60BAEC2CFCEF33FFEE33FEEDF3
:1001B40033FD020260E803F830E705C0F075F00093
:1001C400EF2FFFEE33FEED33FD40B830E7C280AAD7
:1001D40075F020800E75F010800575F0087D007EA6
:1001E400007F003392D530D503120361EC33401005
:1001F400EF33FFEE33FEED33FDEC33FCD5F0ED22AF
:0E020400E5F0247EA2D513CC92E7CDCEFF22EA
:10021200EDD2E7CD33EC3392D524814006E4FFFEE4
:10022200FDFC22FCE4CFCECDCC24E0501174FF8043
:10023200EDC3CC13CCCD13CDCE13CECF13CF0470E0
:07024200F030D5DE0203617C
:10024900E9D2E7C933E833F892D5EDD2E7CD33ECFB
:0702590033FC5002B2D52274
:10026000EC30E7100FBF000C0EBE00080DBD0004FF
:100270000BEB6014A2D5EB13FCED92E7FD2274FFAB
:10028000FCFDFEFF22E480F8A2D574FF13FC7D8004
:03029000E480EF18
:0300000002055F97
:0C055F00787FE4F6D8FD7581480205A6FF
:1002930075F008758200EF2FFFEE33FECD33CDCC22
:1002A30033CCC58233C5829BED9AEC99E5829840A5
:1002B3000CF582EE9BFEED9AFDEC99FC0FD5F0D682
:1002C300E4CEFBE4CDFAE4CCF9A88222B800C1B9AC
:1002D3000059BA002DEC8BF084CFCECDFCE5F0CBEA
:1002E300F97818EF2FFFEE33FEED33FDEC33FCEB23
:1002F30033FB10D703994004EB99FB0FD8E5E4F9DE
:10030300FA227818EF2FFFEE33FEED33FDEC33FCCA
:10031300C933C910D7059BE99A4007EC9BFCE99ABE
:10032300F90FD8E0E4C9FAE4CCFB2275F010EF2F03
:10033300FFEE33FEED33FDCC33CCC833C810D70703
:100343009BEC9AE899400AED9BFDEC9AFCE899F83E
:0E0353000FD5F0DAE4CDFBE4CCFAE4C8F922D1
:0E036100C3E49FFFE49EFEE49DFDE49CFC22AD
:10056B000205EBE493A3F8E493A34003F68001F2B6
:10057B0008DFF48029E493A3F85407240CC8C33391
:10058B00C4540F4420C8834004F456800146F6DF60
:10059B00E4800B0102040810204080900739E47EB0
:1005AB00019360BCA3FF543F30E509541FFEE49355
:1005BB00A360010ECF54C025E060A840B8E493A31C
:1005CB00FAE493A3F8E493A3C8C582C8CAC583CA47
:1005DB00F0A3C8C582C8CAC583CADFE9DEE780BEFF
:01076F000089
:00000001FF
