:103276000000000000000000000000000000000048
:103286000000000000000000000000000000000038
:103296000000000000000000000000000000000028
:1032A6000000000000000000000000000000000018
:1032B6000000000000000000000000000000000008
:1032C60000000000000000000000000000000000F8
:1032D60000000000000000000000000000000000E8
:1032E60000000000000000000000000000000000D8
:1032F60000000000000000000000000000000000C8
:1033060000000000000000000000000000000000B7
:1033160000000000000000000000000000000000A7
:103326000000000000000000000000000000000097
:103336000000000000000000000000000000000087
:103346000000000000000000000000000000000077
:103356000000000000000000000000000000000067
:103366000000000000000000000000000000000057
:1017DA00500ACC00000000000000000000000000D9
:1017EA00000000500BDC00000000000000000000B8
:1017FA0000000000000050107A3F0712643FCA9BA5
:10180A00963FCA9B963F07126450106A3F800000B9
:10181A003FE1490D3F97690C3E8E5DDF5008BC3FA2
:10182A00768733C038E5674038E567BF7687335037
:10183A0008AC3F800000C03B2CC0403687A0BF6D7B
:10184A00681E65A003023D48EAF1BE0C940ABE3543
:10185A0095E83D496EDCB834E9CE3ECFEBE1BDDE1A
:10186A00AEE6BE0597B23E157F01BAF4D568BE6BE7
:10187A00686BBFB08DD9BF6F6F243FAC6261BE0E7B
:10188A00DBACBE0B6B1CBF71AFDCBF96C36A3F5AA1
:10189A00028BBDAEE0E63E57D028BF29FBC5BF1676
:1018AA00EDFC3F6AEAF1BD5C8237BD7CEC1EBE16D8
:1018BA00EEA5BE3F77D63E5BC629BBD24AF5BC6DC4
:1018CA00F86BBDFBFDA03DE9DB8CBF2F152F3E74E5
:1018DA00C1BFBD3BD040BBA72E72BD738A10BD6F7E
:1018EA0032CB3D544B4CBD6E0CD2BBBAF929BCD09D
:1018FA009140BCCF7CA73D14A843BBF7A53FBB8052
:10190A00DC6CBD3F2A2ABD4464BE3D0C81ACBCFAE6
:10191A004782BCE346CFBD1E281EBD2701D73D2FF7
:10192A0009FEBCB4D033BD66633DBD3EB4B2BD4D05
:10193A0092243D1FF17ABD14FBEBBBD895C9BD5C5F
:10194A00A111BD3DA57A3D5ABABEBD37172BBCD3EE
:10195A0011883C001DC4BCED0629BCC7ACFD3C93F4
:10196A0075A13C9E36A9B7C46BF5BD4571CABD14B5
:10197A00F8713D41FEF0BD0B4F8FBB91DBA9BD78DD
:10198A003214BD8E31563D515326BD15430D3A3B97
:10199A007523BCEF920ABCC5C2E73D0A9CC4BC2FA2
:1019AA00B64CBD31D888BD20B216BD3295D83D0699
:1019BA00D918BCA9E8A7BD047FBFBD3B069BBD2AB9
:1019CA00AE4E3D39FD0FBCE3DA7B3C92F97DBD8C0E
:1019DA009129BD9018E53D9FEF76BD8310C7BB8E58
:1019EA0093563909CE713C95048FBCE3C8DB3BDBC7
:1019FA00C4783CF6D14CBBE2471BBE089561BDC614
:101A0A00F0893E199A2FBD49C0603C104618BD980E
:101A1A00FF68BDA226373E04B256BC339050BCBB09
:101A2A007845BD69F5D5BD5D16603DC0D242BC0A98
:101A3A002573BBA36782BE12C67FBE0B96FA3E24ED
:101A4A0032B0BD4B67D5BCC2F8A3BDFF3CEBBE3C70
:101A5A0041233DF0BFF3BD25C1AC3A2D1EF7BE129E
:101A6A005875BE2958813E1835A1BD52B2963D829D
:101A7A000894BD3B582A3D03FE223C961CAA3DF41D
:101A8A0089C93CC78577BC2DB77DBD862FAABD887D
:101A9A004EA63D73E2E4BD8A58E4BBBCE389BCE3CD
:101AAA001089BCE1327E3D279951BC0CC3FEB9179F
:101ABA00C3A6BD569716BD628E2F3D156E76BD1E06
:101ACA00EBADBCDD36FEBD2E137EBD29574C3D2E37
:101ADA00A5ECBCF1AA7EBD7B7749BD47A886BD4D62
:101AEA00CFAD3D242B63BD3118D7BBF38CEEBD7748
:101AFA009127BD58972B3D6DB169BD5376A8BC7D22
:101B0A00B1223CACC3C9BC9D1BCEBC3BF1D43D1435
:101B1A000E113C420EDDBBB34631BD502357BD1EEC
:101B2A0001553D56D08ABD21B29CBB9A14BBBD8DCE
:101B3A00A482BD9AEB953D79C31DBD329EFBBB07BE
:101B4A00AE30BCDD1CBEBCA99C573D08BA2EBC3CBD
:101B5A00AFA0BD305E72BD1ECF36BD22745C3D079C
:101B6A00064FBCC67189BD202364BD2DC708BD1BA5
:101B7A009FCE3D3029A4BCF4A3533CA055EDBD9B98
:101B8A006D3EBDA35BDE3DAA982CBD9631783BD64F
:101B9A00A533BA8FA91B3D2CE930BB27188A3C4BC9
:101BAA00BF3D3CAF26F3BD1309DDBE26FC19BDF9C6
:101BBA007F3F3E3518DABD88E5E8BCB44625BDBB93
:101BCA004E4FBDBEE5373E28B3F1BC71014EBB5E38
:101BDA0051B2BD0B4684BD1AF9DD3DB491F4BC1077
:101BEA00E419BD34B5DEBE15C2A8BE0E83283E2355
:101BFA00B256BD8978383C123DE5BE067339BE50EF
:101C0A00289E3E0D599ABD5C56903CCA4251BE343C
:101C1A00058EBE48B2A93E39B698BD8E916B3E0B71
:101C2A00568CBDA45ACB3D875D4D3A51CFD13D2349
:101C3A0091623DB60480BBB1ACBE3DC423D03E0424
:101C4A0001E4BD1337EF3E2B3FD5BB7CAF68BDFF28
:101C5A00DFCEBE2EFC043D3F5CDDBE09CB7FBC104F
:101C6A00EB6E3DF2D4FB3E0E68E5BD58647F3E083C
:101C7A00202ABCAAA511BC854E4DBD0AFB58BCB989
:101C8A004610BD6DF75B3DB7F1FB3D7633A93D329A
:101C9A007473BD587A8B3DAED8653CE56A97BD280A
:101CAA00F31BBDE9F4693DD5876FBD8E2E2B3DFC34
:101CBA00FB95BD4126013E7852193C9724AE3C9CC7
:101CCA00B79B3B66DD233CA7102E3DC419653DF446
:101CDA00C45DBD90D8E23E0C2C533CAECDA33D0270
:101CEA00BED93CF4AF17BD13A76A3C6F750ABC1A7C
:101CFA00378E3DC2CADE3DBE0B8DBD2EE5C63DBC4C
:101D0A001EBF3D0B73573CB496B3BC330B133C4612
:101D1A00204E3CE8C5813E1B11273D85E50A3D4022
:101D2A008F22BD2487343DA017303D42ED343DA0BB
:101D3A00B95E3D2F978CBD4D30CF3DC13BF33DD5AC
:101D4A007CCEBD11A08C3DF0E4943CE10851BD8DE0
:101D5A00FB97BD2C174A3D20437B3D4BA73B3D5B80
:101D6A00673CBCE3E7013D69B04C3CAE67323E1DBF
:101D7A00CF793E37B161BDFA403A3DF1DBADBC7E69
:101D8A00E12D3CE59D233CA4322D3C000EC83C903D
:101D9A0017533DCF09543C8C311E3BEAC1273D57AE
:101DAA0043CA3CB00B5B3DC70B163D6561743C856D
:101DBA00118CBD3B9B383D4FFDD2BCBA65653DFBDE
:101DCA00A0D53DE15162BE02290F3E280F603D8C2D
:101DDA00B0D13CAECC7ABD50BCC33AB606FF3C107B
:101DEA001D3DBD4E7B0660280F82C139A224BE323A
:101DFA009333BE2A527DBFCE5E88BDDEC6E7BD9C48
:101E0A00EE2EBFC66C833DD20A3EBEF2D71EBF2B52
:101E1A00283260900CEDBA5E51D23FBEE48740563C
:101E2A009697C0448EBE4073FD603ABBDC533F8434
:101E3A003DD43FF3B8AEC016E889402172743ABA6D
:101E4A00D38C3F5F1E864003EE84BFF400993FAFF8
:101E5A00806A3E2AADF93FEAFB5B4071C63CC09DF1
:101E6A00C06740B575BD3EF593DF3FDCCBA8408324
:101E7A00C314C05D644040B258633E3DC0E3408B2A
:101E8A001E9940E258EAC0CFB8314205F5883DDED6
:101E9A006D193E6F55EE3E752B05BDBDFC28BE87FC
:101EAA009BA2BED2C18060900FDA3DDC91D03FA0E8
:101EBA00B8A04044A881401E65B94072D9473D8DFB
:101ECA00BB283F9A27FD400438CC40167C0B40A320
:101EDA008DBC3D8DE1033F4766283FF873433FD0F1
:101EEA005E3B3FDD252D3E8CBC5B3FBDBB2E403C9F
:101EFA005CCC407AF6DF40C6DD163F0E00EA3FB7FB
:101F0A00B74F40521E3F4036806440C108233ECC42
:101F1A0059134072D33940C4A15040B0E47B4214F3
:101F2A0008FE3EEF7AEB3ECC66783F004F823EB623
:101F3A006BF13EBE34E13EC4EA2F60280FAE0000CA
:101F4A000000000000000000000000000000000087
:101F5A000000000000000000000000000000000077
:101F6A000000000000006090108C000000000000DB
:101F7A000000000000000000000000000000000057
:101F8A000000000000000000000000000000000047
:101F9A000000000000000000000000000000000037
:101FAA000000000000000000000000000000000027
:101FBA000000000000000000000000000000000017
:101FCA000000000000000000000000000000000007
:101FDA0000000000000000000000000000000000F7
:101FEA0000000000000000000000000000000000E7
:101FFA0000000000000000000000450F7D00000006
:0B200A0000004202000000410BEC004F
:103DB900C2B2C2B38FE87F01123DD9D2B4C2B422D4
:103DC900D2B2C2B38FE87F01123DD9D2B4C2B422B4
:103D08007F38123DB97F14123DD97F38123DB97FF3
:103D180014123DD97F38123DB97F0C123DB97F0688
:083D2800123DB97F01023DB913
:0B3CDA00900F7DE02430FBE4FD7F0331
:103CE500901450EBF0ED5401FDEF540FFFED60041F
:103CF500EF4440FFEF4480FF123DB9901450E0FFC0
:033D0500023DC9B3
:103A1C0090149FEBF0A3EAF0A3E9F090149DEFF063
:033A2C00A3EDF017
:103A2F00E49014A2F0EF540190149DF0ED540FA305
:103A3F00F090149FE0FBA3E0FAA3E0F9A3E0F58276
:103A4F00758300122573FBD39419748094804024DE
:103A5F0090149EE0FFD3940F7480948050D39014F1
:103A6F009DE0FD123CE59014A2E004F090149EE05E
:043A7F0004F080BD12
:013A83002220
:06385A007B017D407C00B3
:10386000901481EBF0A3EAF0A3E9F0A3ECF0A3ED50
:01387000F067
:1038710090148712271C00000000E4901486F09039
:103881001486E0FFD3901485E09F7480F89014842F
:10389100E0648098403A901487E0FCA3E0FDA3E047
:1038A100FEA3E0FF901481E0FBA3E0FAA3E0F9900E
:1038B1001486E075F004A4F58285F0831226E012E7
:1038C100201D901487122710901486E004F080AF19
:1038D100901484E0FCA3E0FDEC122343A804A905A5
:1038E100AA06AB07901487E0FCA3E0FDA3E0FEA3CA
:0538F100E0FF022217B8
:063159007B017D407C00BB
:10315F00901476ECF0A3EDF0901473EBF0A3EAF07B
:03316F00A3E9F0E1
:10317200A3E0FCA3E0FD12386090147812271090AF
:10318200147C12271C00000000E4901480F09014BC
:1031920080E0FFD3901477E09F7480F8901476E07B
:1031A200648098407990147CE0F8A3E0F9A3E0FAF7
:1031B200A3E0FBC000C001C002C003901473E0FB97
:1031C200A3E0FAA3E0F9901480E075F004A4F5827C
:1031D20085F083122654901478E0F8A3E0F9A3E076
:1031E200FAA3E0FB122019C004C005C006C0079074
:1031F200148512271C40000000D007D006D005D04D
:1032020004122D80D003D002D001D00012201D90D4
:10321200147C122710901480E004F0023190901474
:103222007CE0FCA3E0FDA3E0FEA3E0FFC004C00538
:10323200C006C007901476E0FCA3E0FDEC12234325
:10324200A804A905AA06AB07D007D006D005D0046A
:1032520012221790147C12271090148512271C3FFB
:1032620000000090147CE0FCA3E0FDA3E0FEA3E0DC
:04327200FF022D80AA
:063670007B017D407C009F
:10367600901453ECF0A3EDF0901450EBF0A3EAF0A5
:03368600A3E9F0C5
:10368900122634901456122710E4901455F0901411
:1036990055E0FFD3901454E09F7480F8901453E0E0
:1036A9006480984059901450E0FBA3E0FAA3E0F934
:1036B900901455E075F004A4F58285F08312265420
:1036C900901456E0F8A3E0F9A3E0FAA3E0FB122274
:1036D900B460234021901450E0FBA3E0FAA3E0F981
:1036E900901455E075F004A4F58285F083122654F0
:1036F900901456122710901455E004F080909014FD
:0C37090056E0FCA3E0FDA3E0FEA3E0FFFF
:013715002291
:063716007B017D407C00F8
:10371C00901453ECF0A3EDF0901450EBF0A3EAF0FE
:03372C00A3E9F01E
:10372F00122634901456122710E4901455F090146A
:10373F0055E0FFD3901454E09F7480F8901453E039
:10374F006480984057901450E0FBA3E0FAA3E0F98F
:10375F00901455E075F004A4F58285F08312265479
:10376F00901456E0F8A3E0F9A3E0FAA3E0FB1222CD
:10377F00B45021901450E0FBA3E0FAA3E0F99014A9
:10378F0055E075F004A4F58285F083122654901449
:10379F0056122710901455E004F08092901456E0C2
:0A37AF00FCA3E0FDA3E0FEA3E0FF91
:0137B90022ED
:063441007B017D407C00D0
:10344700901450EBF0A3EAF0A3E9F0A3ECF0A3ED9E
:01345700F084
:1034580090145612271C00000000E4901455F090B8
:103468001455E0FFD3901454E09F7480F8901453DF
:10347800E06480984067901456E0F8A3E0F9A3E070
:10348800FAA3E0FBC000C001C002C003901450E0E2
:10349800FBA3E0FAA3E0F9901455E075F004A4F555
:1034A8008285F083122654C004C005C006C0079068
:1034B800148512271C40000000D007D006D005D084
:1034C80004122D80D003D002D001D00012201D900C
:1034D8001456122710901455E004F080829014536B
:1034E800E0FCA3E0FDEC122343A804A905AA06AB5F
:1034F80007901456E0FCA3E0FDA3E0FEA3E0FF0262
:02350800221788
:10284400A3F0A3E4F0A37440F07A0879CC7B01FDF3
:022854007C0006
:10285600901453ECF0A3EDF0901450EBF0A3EAF0D3
:03286600A3E9F0F3
:10286900A3E0FCA3E0FD12386090145B12271090DE
:102879001455E0FBA3E0FAA3E0F9A3E0FCA3E0FD13
:1028890012386090145F122710901450E0FBA3E0F7
:10289900FAA3E0F9A3E0FCA3E0FD12315F90146311
:1028A900122710901455E0FBA3E0FAA3E0F9A3E086
:1028B900FCA3E0FD12315F90146712271090146B8E
:1028C90012271C00000000E490145AF090145AE0FA
:1028D900FFD3901454E09F7480F8901453E06480FF
:1028E90098406890146BE0F8A3E0F9A3E0FAA3E03C
:1028F900FBC000C001C002C003901455E0FBA3E077
:10290900FAA3E0F990145AE075F004A4F58285F071
:1029190083122654901450E0FBA3E0FAA3E0F99047
:10292900145AE075F004A4F58285F0831226E012AA
:10293900210ED003D002D001D00012201D90146BBB
:1029490012271090145AE004F0808190146BE0FC77
:10295900A3E0FDA3E0FEA3E0FFC004C005C006C0DC
:1029690007901453E0FCA3E0FDEC122343A804A94B
:1029790005AA06AB07D007D006D005D00412221746
:1029890090146B12271090145FE0FCA3E0FDA3E004
:10299900FEA3E0FF90145BE0F8A3E0F9A3E0FAA33B
:1029A900E0FB12210EA804A905AA06AB0790146B37
:1029B900E0FCA3E0FDA3E0FEA3E0FF1220199014C0
:1029C9006F12271090146FE0FCA3E0FDA3E0FEA3B3
:1029D900E0FFC004C005C006C007901467E0FCA36F
:1029E900E0FDA3E0FEA3E0FF901463E0F8A3E0F9A3
:1029F900A3E0FAA3E0FB12210EA804A905AA06ABDD
:102A090007D007D006D005D00412221790146F12F0
:102A1900271090146FE0FCA3E0FDA3E0FEA3E0FF04
:012A2900228A
:10350A0090145FEBF0A3EAF0A3E9F090145FE0FBFC
:10351A00A3E0FAA3E0F912274D0000000090145F1F
:10352A00E0FBA3E475F0041225FAA9F0FA12274D7C
:10353A000000000090145FE0FBA3E475F00412257C
:10354A00FAA9F0FA12274D0000000090145FE0FB80
:10355A00A3E475F0041225FAA9F0FA12274D000027
:10356A000000901462E0FBA3E0FAA3E0F912274DF1
:10357A0000000000901462E0FBA3E475F004122539
:10358A00FAA9F0FA12274D00000000901462E0FB3D
:10359A00A3E475F0041225FAA9F0FA12274D0000E7
:1035AA000000901462E0FBA3E475F0041225FAA966
:0A35BA00F0FA12274D000000002275
:102A2A0090145F122710901463EBF0A3EAF0A3E965
:012A3A00F0AB
:102A3B007B03EBD39400748094804057EB25E02507
:102A4B00E024D8F582E4340BF583E0FCA3E0FDA38E
:102A5B00E0FEA3E0FFEB25E025E024DCF582E43487
:102A6B000BF583122710EB25E025E024C8F582E453
:102A7B00340AF583E0FCA3E0FDA3E0FEA3E0FFEB4B
:102A8B0025E025E024CCF582E4340AF583122710E7
:102A9B001B809F90145FE0FCA3E0FDA3E0FEA3E08E
:102AAB00FF900ACC122710900BDC12271C000000A1
:102ABB00009014697401F0901469E0C3940474805D
:102ACB0094804003022BA3900BDCE0F8A3E0F9A366
:102ADB00E0FAA3E0FBC000C001C002C00390146683
:102AEB00E0FBA3E0FAA3E0F9A3E075F004A4F58200
:102AFB0085F083122654901469E025E025E024CC60
:102B0B00F582E4340AF583E0F8A3E0F9A3E0FAA335
:102B1B00E0FB12210ED003D002D001D00012201DF9
:102B2B00900BDC122710900BDCE0FCA3E0FDA3E084
:102B3B00FEA3E0FFC004C005C006C007901463E00D
:102B4B00FBA3E0FAA3E0F9901469E075F004A4F597
:102B5B008285F083122654901469E025E025E02449
:102B6B00DCF582E4340BF583E0F8A3E0F9A3E0FA9B
:102B7B00A3E0FB12210EA804A905AA06AB07D007F8
:102B8B00D006D005D004122019900BDC1227109020
:102B9B001469E004F0022AC2900BDCE0F8A3E0F920
:102BAB00A3E0FAA3E0FBC000C001C002C003901475
:102BBB0066E0FBA3E0FAA3E0F9122634900ACCE01E
:102BCB00F8A3E0F9A3E0FAA3E0FB12210ED003D0A7
:102BDB0002D001D00012201D900BDC122710900B9D
:0C2BEB00DCE0FCA3E0FDA3E0FEA3E0FFA3
:012BF70022BB
:0B37BA00901450EBF0A3EAF0A3E9F03C
:1037C5009014627401F0A3740BF0A374DCF07B0118
:1037D5007A0A79CC12350AE490145EF090145EE012
:1037E500FFD390145DE09F7480F890145CE06480D2
:1037F500984061901453E0FBA3E0FAA3E0F990141C
:103805005EE075F004A4F58285F0831226549014C9
:1038150059E0F9A3E0FAA3E0901466C9F0A3EAF031
:10382500A3E9F0901456E0FBA3E0FAA3E0F9122A0D
:103835002A901450E0FBA3E0FAA3E0F990145EE0AF
:1038450075F004A4F58285F08312268490145EE059
:0438550004F0808873
:01385900224C
:0B00260090111CEBF0A3EAF0A3E9F03E
:1000310078267C137D017BFF7A3279767E017F0001
:10004100122534E4901426F0A3F0901122E0FEA3CF
:10005100E0FF901426E0FCA3E0FDC39FEE6480F86E
:10006100EC64809840030201A7A3ECF0A3EDF0E457
:10007100A3F0A3F0A3F0A3F0901124E0FEA3E0FF0E
:10008100C390142DE09FEE6480F890142CE06480FE
:10009100985060901428E0FAA3E0FB7C007D02FFF9
:1000A100AE021225C490142EEEF0A3EFF0E025E08D
:1000B100FF90142EE033FEC3EB9FFDEA9EFC9014EB
:1000C1002BE025E0FF90142AE033FEED2FFFEC3EFC
:1000D100F0A3EFF090142EE0FFA3E0901428CFF0EE
:1000E100A3EFF090142DE004F0708D90142CE00437
:1000F100F0808590142AE0FEA3E07802C333CE336A
:10010100CED8F9FF90111FE0FBA3E0FAA3E0F98F2D
:10011100828E83122654C004C005C006C007901405
:1001210026E0FEA3E07802C333CE33CED8F92426ED
:10013100F58274113EF583D007D006D005D00412A4
:10014100271090142AE0FEA3E07802C333CE33CE09
:10015100D8F92426F58274133EF583E0FCA3E0FD73
:10016100A3E0FEA3E0FFC004C005C006C0079014D1
:1001710026E0FEA3E07802C333CE33CED8F924269D
:10018100F58274123EF583D007D006D005D0041253
:100191002710901427E004F0600302004B9014260E
:1001A100E004F002004B90111FE0FBA3E0FAA3E092
:1001B100F912274D3F80000090132612271C0000E2
:1001C1000000901122E0FCA3E0FDEC122343A804FF
:1001D100A905AA06AB077FDB7E0F7DC97C401222F1
:1001E10017901434122710901434E0FCA3E0FDA3FF
:1001F100E0FEA3E0FF122C4090111FE0FBA3E0FA08
:10020100A3E0F9900004122684901434E0FCA3E0EA
:10021100FDA3E0FEA3E0FF122C5612232D90132A1A
:1002210012271090142CE4F0A37402F0901122E034
:10023100FEA3E0FFC390142DE09FEE6480F89014BC
:100241002CE0648098400302041AA3E024FFFF908D
:10025100142CE034FFFEEF7802C333CE33CED8F94D
:10026100FF90111FE0FBA3E0FAA3E0F98F828E83D8
:100271001226549000041226E012210E901434121A
:10028100271090142CE0FEA3E07802C333CE33CEC6
:10029100D8F92422F58274133EF583E0FCA3E0FD36
:1002A100A3E0FEA3E0FF90132AE0F8A3E0F9A3E0A6
:1002B100FAA3E0FB12210E90143812271090142D8E
:1002C100E024FFFF90142CE034FFFEEF7802C333EB
:1002D100CE33CED8F9FF90111FE0FBA3E0FAA3E0E3
:1002E100F98F828E83122654C004C005C006C00750
:1002F10090142CE0FEA3E07802C333CE33CED8F9BC
:100301002422F58274133EF583E0F8A3E0F9A3E01B
:10031100FAA3E0FBD007D006D005D00412201DC0FF
:1003210004C005C006C00790111FE0FBA3E0FAA3BB
:10033100E0F990000412265490132AE0F8A3E0F9A2
:10034100A3E0FAA3E0FB12201DD003D002D001D01C
:100351000012210E90143C122710901438E0F8A3DB
:10036100E0F9A3E0FAA3E0FB901434E0FCA3E0FD84
:10037100A3E0FEA3E0FF122019C004C005C006C01F
:100381000790142CE0FEA3E07802C333CE33CED81D
:10039100F9FF90111FE0FBA3E0FAA3E0F98F828E31
:1003A10083D007D006D005D004122684901434E0FF
:1003B100F8A3E0F9A3E0FAA3E0FB90143CE0FCA36E
:1003C100E0FDA3E0FEA3E0FF122019901438E0F84D
:1003D100A3E0F9A3E0FAA3E0FB122019C004C005D1
:1003E100C006C00790142CE0FEA3E07802C333CE10
:1003F10033CED8F92426F58274133EF583D007D085
:1004010006D005D00412271090142DE004F07006D8
:1004110090142CE004F002022DE4901426F0A3F0D5
:10042100901123E024FEFF901122E034FFFED390CF
:100431001427E09FEE6480F8901426E064809840D1
:10044100030205FBE0FEA3E07802C333CE33CED82E
:10045100F9FBAA062426F58274113AF583E0FCA380
:10046100E0FDA3E0FEA3E0FF9014401227107426E4
:100471002BF58274123AF583E0FCA3E0FDA3E0FEC4
:10048100A3E0FF901444122710901426E0FEA3E08D
:100491007802C333CE33CED8F9242AF58274113EC3
:1004A100F583E0FCA3E0FDA3E0FEA3E0FF90144090
:1004B100E0F8A3E0F9A3E0FAA3E0FB12201DC004D9
:1004C100C005C006C007901426E0FEA3E07802C371
:1004D10033CE33CED8F9FBAA062426F58274113A1D
:1004E100F583D007D006D005D004122710742A2B2B
:1004F100F58274123AF583E0FCA3E0FDA3E0FEA3CC
:10050100E0FF901444E0F8A3E0F9A3E0FAA3E0FBD4
:1005110012201DC004C005C006C007901426E0FECD
:10052100A3E07802C333CE33CED8F9FBAA06242642
:10053100F58274123AF583D007D006D005D00412A3
:100541002710742A2BF58274113AF583E0F8A3E0A1
:10055100F9A3E0FAA3E0FB901440E0FCA3E0FDA3C3
:10056100E0FEA3E0FF122019C004C005C006C007C9
:10057100901426E0FEA3E07802C333CE33CED8F93F
:10058100FBAA06242AF58274113AF583D007D00616
:10059100D005D004122710742A2BF58274123AF573
:1005A10083E0F8A3E0F9A3E0FAA3E0FB901444E0B0
:1005B100FCA3E0FDA3E0FEA3E0FF122019C004C0EC
:1005C10005C006C007901426E0FEA3E07802C333FD
:1005D100CE33CED8F9242AF58274123EF583D007A2
:1005E100D006D005D004122710901427E02402F081
:1005F100901426E03400F0020421901122E0FEA3C1
:10060100E0FF7C007D021225C4901428EEF0A3EFD8
:10061100F0901430E4F0A37402F0901125E024FE70
:10062100FE901124E034FF901432F0A3CEF0C39079
:100631001432E0648094805003020B47901428E048
:10064100FEA3E0FF7C007D021225C4901428EEF089
:10065100A3EFF0901431E025E0F0901430E033F096
:10066100E4901426F0A3F0901429E024FFFF9014E5
:1006710028E034FFFE901430E0FCA3E0FD1225B227
:10068100D3901427E09FEE6480F8901426E06480F4
:10069100984003020B36E490142EF0A3F09014302E
:1006A100E0FEA3E0FF7C007D021225C4EF24FFFFE2
:1006B100EE34FFFED390142FE09FEE6480F8901487
:1006C1002EE06480984003020B1FE0FCA3E0FD9044
:1006D1001428E0FEA3E0FF1225B2EF7802C333CE67
:1006E10033CED8F9FF90111FE0FBA3E0FAA3E0F9A4
:1006F1008F828E83122654C004C005C006C00790A5
:100701001430E0FEA3E0FF7C007D021225C49014AA
:100711002EE0FCA3E0FD901427E02DFD901426E0CF
:100721003CCD2FFFED3EFEEF7802C333CE33CED862
:10073100F92426F58274113EF583E0F8A3E0F9A3CC
:10074100E0FAA3E0FBD007D006D005D00412210EB9
:10075100901434122710901430E0FEA3E0FF7C00C7
:100761007D021225C490142EE0FCA3E0FD90142715
:10077100E02DFD901426E03CCD2FFFED3EFEEF78FD
:1007810002C333CE33CED8F92426F58274123EF556
:1007910083E0FCA3E0FDA3E0FEA3E0FFC004C005ED
:1007A100C006C00790142EE0FCA3E0FD901428E0E1
:1007B100FEA3E0FF1225B2EF7802C333CE33CED8C9
:1007C100F92426F58274133EF583E0F8A3E0F9A33A
:1007D100E0FAA3E0FBD007D006D005D00412210E29
:1007E10090143812271090142EE0FCA3E0FD901411
:1007F10028E0FEA3E0FF1225B2EF7802C333CE3327
:10080100CED8F9FF90111FE0FBA3E0FAA3E0F98F26
:10081100828E83122654C004C005C006C0079014FE
:100821002EE0FCA3E0FD901428E0FEA3E0FF1225DA
:10083100B2EF7802C333CE33CED8F92426F58274D1
:10084100133EF583E0F8A3E0F9A3E0FAA3E0FBD0BF
:1008510007D006D005D00412201D90143C12271099
:10086100901430E0FEA3E0FF7C007D021225C490CD
:10087100142EE0FCA3E0FD901427E02DFD9014263A
:10088100E03CCD2FFFED3EFEEF7802C333CE33CEF9
:10089100D8F92426F58274123EF583E0FCA3E0FD2D
:1008A100A3E0FEA3E0FFC004C005C006C00790148A
:1008B10030E0FEA3E0FF7C007D021225C490142EDF
:1008C100E0FCA3E0FD901427E02DFD901426E03C10
:1008D100CD2FFFED3EFEEF7802C333CE33CED8F9F4
:1008E1002426F58274113EF583E0F8A3E0F9A3E034
:1008F100FAA3E0FBD007D006D005D00412201D904A
:10090100143CE0F8A3E0F9A3E0FAA3E0FB12210E06
:1009110090143C122710901438E0F8A3E0F9A3E0FA
:10092100FAA3E0FB901434E0FCA3E0FDA3E0FEA3F6
:10093100E0FF122019901448122710901434E0F8A7
:10094100A3E0F9A3E0FAA3E0FB90143CE0FCA3E0F0
:10095100FDA3E0FEA3E0FF122019901438E0F8A3F4
:10096100E0F9A3E0FAA3E0FB12201990144C12273E
:100971001090142EE0FEA3E0FF901427E02FFF90CB
:100981001426E03EFEEF7802C333CE33CED8F924ED
:1009910026F58274113EF583E0FCA3E0FDA3E0FEA1
:1009A100A3E0FF901448E0F8A3E0F9A3E0FAA3E084
:1009B100FB122019C004C005C006C007901430E026
:1009C100FEA3E0FF7C007D021225C490142EE0FC02
:1009D100A3E0FD901427E02DFB901426E03CFAEFF4
:1009E1002BFFEE3AFEEF7802C333CE33CED8F92493
:1009F10026F58274113EF583D007D006D005D004C8
:100A0100122710AE02EB7802C333CE33CED8F924CD
:100A110026F58274123EF583E0FCA3E0FDA3E0FE1F
:100A2100A3E0FF90144CE0F8A3E0F9A3E0FAA3E0FF
:100A3100FB122019C004C005C006C007901430E0A5
:100A4100FEA3E0FF7C007D021225C490142EE0FC81
:100A5100A3E0FD901427E02DFB901426E03CFAEF73
:100A61002BFFEE3AFEEF7802C333CE33CED8F92412
:100A710026F58274123EF583D007D006D005D00446
:100A8100122710AE02EB7802C333CE33CED8F9244D
:100A910026F58274113EF583C083C082E0FCA3E099
:100AA100FDA3E0FEA3E0FF901448E0F8A3E0F9A362
:100AB100E0FAA3E0FB12201DD082D0831227109010
:100AC100142EE0FEA3E0FF901427E02FFF901426E0
:100AD100E03EFEEF7802C333CE33CED8F92426F5BB
:100AE1008274123EF583C083C082E0FCA3E0FDA3C3
:100AF100E0FEA3E0FF90144CE0F8A3E0F9A3E0FAD4
:100B0100A3E0FB12201DD082D08312271090142F56
:100B1100E004F0700690142EE004F002069E90149A
:100B210030E0FEA3E0FF901427E02FF0901426E0C0
:100B31003EF0020668901433E024FFF0901432E096
:100B410034FFF002062FE490142CF0A3F090112250
:100B5100E0FEA3E0FF90142CE0FCA3E0FDC39FEEB8
:100B61006480F8EC6480984003020CA0AE04ED7838
:100B710002C333CE33CED8F92426F58274123EF562
:100B810083E0FCA3E0FDA3E0FEA3E0FFC004C005F9
:100B9100C006C00790142CE0FEA3E07802C333CE58
:100BA10033CED8F92426F58274123EF583E0F8A3FA
:100BB100E0F9A3E0FAA3E0FBD007D006D005D0040A
:100BC10012210EC004C005C006C00790142CE0FE1F
:100BD100A3E07802C333CE33CED8F92426F582744C
:100BE100113EF583E0FCA3E0FDA3E0FEA3E0FFC01E
:100BF10004C005C006C00790142CE0FEA3E07802F3
:100C0100C333CE33CED8F92426F58274113EF58351
:100C1100E0F8A3E0F9A3E0FAA3E0FBD007D006D007
:100C210005D00412210ED003D002D001D000122031
:100C31001D1235C8C004C005C006C007901122E0CE
:100C4100FCA3E0FDEC122343A804A905AA06AB0707
:100C5100D007D006D005D004122217C004C005C0A9
:100C610006C00790142CE0FEA3E07802C333CE3314
:100C7100CED8F9FF90111CE0FBA3E0FAA3E0F98FB5
:100C8100828E83D007D006D005D00412268490141A
:0F0C91002DE004F0700690142CE004F0020B4EDE
:010CA0002231
:103B5E00AD07AC06EC122343900FAA122710900F5C
:103B6E00AAE0FCA3E0FDA3E0FEA3E0FFE4FBFAF96C
:103B7E007845122217900FAA122710900FAAE0FC78
:0A3B8E00A3E0FDA3E0FEA3E0FF2288
:103B2200AD07AC06EC122343900FD6122710900F6C
:103B3200D6E0FCA3E0FDA3E0FEA3E0FF7BEA7A75FA
:103B4200798B783A12210E900FD6122710900FD649
:0C3B5200E0FCA3E0FDA3E0FEA3E0FF22E6
:100CA100123D087FF4123DD953B1FE53B2FE53B148
:100CB100FD43B2027FF4123DD9123D9C123D797F72
:100CC10096123DD97B30E4FD7F01123CE57B3AE48D
:100CD100FD7F02123CE5123CDA7B31E4FD7F061216
:100CE1003CE57B3AE4FD7F07123CE5900F7EE02472
:100CF10030FBE4FD7F08123CE57B32E4FD7F0B1203
:100D01003CE57B3AE4FD7F0C123CE5900F7FE0244B
:100D110030FBE4FD7F0D123CE57B337D017F011249
:100D21003CE57B3A7D017F02123CE5900F80E02497
:100D310030FB7D017F03123CE57B347D017F061290
:100D41003CE57B3A7D017F07123CE5900F81E02471
:100D510030FB7D017F08123CE530FD0302172B7F3C
:100D6100F4123DD9C296E490108AF090108AE0C343
:100D71009440748094804003020E327F1E123DD94C
:100D81007F3B123D30123B5E90108AE025E025E06A
:100D91002400F582E43400F5831227107F3D123DD3
:100DA10030123B5E90108AE025E025E02400F582B8
:100DB100E43401F5831227107F3F123D30123B5E70
:100DC10090108AE025E025E02402F582E43402F562
:100DD100831227107F43123D30123B2290108AE08C
:100DE10025E025E024EDF582E4340BF5831227108C
:100DF1007F45123D30123B2290108AE025E025E02C
:100E0100247DF582E4340DF5831227107F47123DCE
:100E110030123B2290108AE025E025E0247DF58206
:100E2100E4340EF58312271090108AE004F0020DCD
:100E31006CD2969014537401F0A37400F0A3740063
:100E4100F0A37401F0A37410F0A3746AF0A3740109
:100E5100F0A37410F0A3747AF0A3E4F0A37440F04B
:100E61007B017A0079001237BA9014537401F0A310
:100E71007401F0A37400F0A37401F0A37410F0A343
:100E8100746AF0A37401F0A37410F0A3747AF0A350
:100E9100E4F0A37440F07B017A0179001237BA9033
:100EA10014537401F0A37402F0A37402F0A374014B
:100EB100F0A37410F0A3746AF0A37401F0A374108A
:100EC100F0A3747AF0A3E4F0A37440F07B017A02FA
:100ED10079021237BA9014537401F0A3740BF0A382
:100EE10074EDF0A37401F0A37410F0A3746AF0A37D
:100EF1007401F0A37410F0A3747AF0A3E4F0A37466
:100F010040F07B017A0B79ED1237BA9014537401DA
:100F1100F0A3740DF0A3747DF0A37401F0A3741019
:100F2100F0A3746AF0A37401F0A37410F0A3747AAF
:100F3100F0A3E4F0A37440F07B017A0D797D1237C0
:100F4100BA9014537401F0A3740EF0A3747DF0A34E
:100F51007401F0A37410F0A3746AF0A37401F0A3F8
:100F61007410F0A3747AF0A3E4F0A37440F07B0151
:100F71007A0E797D1237BA9014537401F0A374007C
:100F8100F0A37400F0A37401F0A37408F0A374AC8F
:100F9100F0A37401F0A37408F0A374BCF0A3E4F00F
:100FA100A37440F07B017A0879CC1237BA901453BC
:100FB1007401F0A37401F0A37400F0A37401F0A311
:100FC1007408F0A374ACF0A37401F0A37408F0A347
:100FD10074BCF0A3E4F0A37440F07B017A0979CCEE
:100FE1001237BA9014537401F0A37402F0A374027F
:100FF100F0A37401F0A37408F0A374ACF0A374011E
:10100100F0A37408F0A374BCF0A3E4F0A37440F05F
:101011007B017A0A79DC1237BA7A0879CC12385A0C
:1010210090108C1227107A0879CC123159901090B7
:101031001227107A0879CC1236709010941227106A
:101041007A0879CC1237169010981227107A0879FD
:10105100CC12344190109C1227107A0979CC1238A5
:101061005A9010A01227107A0979CC123159901098
:10107100A41227107A0979CC1236709010A8122781
:10108100107A0979CC1237169010AC1227107A0910
:1010910079CC1234419010B01227107B017A0A7971
:1010A100DC12385C9010B41227107B017A0A79DCCB
:1010B10012315B9010B81227107B017A0A79DC1289
:1010C10036729010BC1227107B017A0A79DC123734
:1010D100189010C01227107B017A0A79DC12344370
:1010E1009010C41227107B017A0B79ED12385C90B5
:1010F10010C81227107B017A0B79ED12315B901029
:10110100CC1227107B017A0B79ED1236729010D038
:101111001227107B017A0B79ED1237189010D41237
:1011210027107B017A0B79ED1234439010D81227E6
:10113100107B017A0D797D12385C9010DC1227103A
:101141007B017A0D797D12315B9010E01227107BC3
:10115100017A0D797D1236729010E41227107B010D
:101161007A0D797D1237189010E81227107B017AD9
:101171000D797D1234439010EC1227107B017A0E09
:10118100797D12385C9010F01227107B017A0E796C
:101191007D12315B9010F41227107B017A0E797D5C
:1011A1001236729010F81227107B017A0E797D1297
:1011B10037189010FC1227107B017A0E797D1234BA
:1011C100439011001227109014557401F0A3740973
:1011D100F074CC1228449011081227109014557401
:1011E10001F0A3740AF0A374DCF0A3E4F0A374404B
:1011F100F07A0979CC12285190110C122710901411
:10120100557401F0A3740AF074DC12284490111093
:101211001227109014557401F0A3740DF0A3747D7E
:10122100F0A3E4F0A37440F07B017A0B79EDFD7C2F
:10123100001228569011141227109014557401F0C1
:10124100A3740EF0A3747DF0A3E4F0A37440F07BCB
:10125100017A0B79EDFD7C001228569011181227A6
:10126100109014557401F0A3740EF0A3747DF0A3D3
:10127100E4F0A37440F07B017A0D797DFD7C0012CE
:10128100285690111C122710E490108AF090108AB1
:10129100E0FFC39424748094804003021331EF254E
:1012A100E025E0248CF582E43410F583C083C0820C
:1012B100E0FCA3E0FDA3E0FEA3E0FF90108AE0259F
:1012C100E025E024EDF582E4340CF583E0F8A3E0B9
:1012D100F9A3E0FAA3E0FB122019D082D0831227F0
:1012E1001090108AE025E025E0248CF582E434108A
:1012F100F583C083C082E0FCA3E0FDA3E0FEA3E090
:10130100FF90108AE025E025E024DAF582E4340F2D
:10131100F583E0F8A3E0F9A3E0FAA3E0FB122217BA
:10132100D082D08312271090108AE004F002128E2E
:10133100E490108AF090108AE0FFC3940A748094BC
:1013410080400302144FEF25E025E024AEF582E44E
:10135100340FF58312271C00000000E490108BF07D
:1013610090108BE0C3942474809480400302140095
:1013710090108AE025E025E024AEF582E4340FF5F3
:1013810083C083C082E0F8A3E0F9A3E0FAA3E0FB05
:10139100C000C001C002C00390108AE075F090A4A3
:1013A1002402F582E5F03403F583C083C0829010F6
:1013B1008BE0FFD082D08375F004122767E0F8A399
:1013C100E0F9A3E0FAA3E0FBEF25E025E0248CF5AA
:1013D10082E43410F583E0FCA3E0FDA3E0FEA3E08A
:1013E100FF12210ED003D002D001D00012201DD057
:1013F10082D08312271090108BE004F002136190C9
:10140100108AE025E025E024AEF582E4340FF5836F
:10141100C083C082E0FCA3E0FDA3E0FEA3E0FF9057
:10142100108AE025E025E02482F582E4340FF5837B
:10143100E0F8A3E0F9A3E0FAA3E0FB12201DD082BB
:10144100D08312271090108AE004F00213367F0D2A
:10145100123E2D7F0A123E2DE490108AF090108AE0
:10146100E0FFC3940A748094805059EF25E025E091
:1014710024AEF582E4340FF583E0FCA3E0FDA3E0A4
:10148100FEA3E0FFE4FBFAF9F81222B490108AE01F
:10149100501625E025E024AEF582E4340FF58312E1
:1014A100271C3F800000801425E025E024AEF58252
:1014B100E4340FF58312271C0000000090108AE02D
:1014C10004F08099900FB2E0FCA3E0FDA3E0FEA33D
:1014D100E0FF900FAEE0F8A3E0F9A3E0FAA3E0FB90
:1014E10012201D900FB6E0F8A3E0F9A3E0FAA3E003
:1014F100FB12201D900FBAE0F8A3E0F9A3E0FAA3D4
:10150100E0FB12201D12237C9008A2EEF0A3EFF065
:10151100900FAEE0F8A3E0F9A3E0FAA3E0FBE4FF4B
:10152100FE7D807C3F122019900FBEE0F8A3E0F908
:10153100A3E0FAA3E0FB12201D900FC2E0F8A3E0A4
:10154100F9A3E0FAA3E0FB12201D900FC6E0F8A377
:10155100E0F9A3E0FAA3E0FB12201D12237C90081E
:10156100A4EEF0A3EFF0900FB2E0F8A3E0F9A3E04E
:10157100FAA3E0FBE4FFFEFD7C40122019900FBEB0
:10158100E0F8A3E0F9A3E0FAA3E0FB122019900F21
:10159100CAE0F8A3E0F9A3E0FAA3E0FB12201D9052
:1015A1000FCEE0F8A3E0F9A3E0FAA3E0FB12201DBF
:1015B10012237C9008A6EEF0A3EFF0900FB6E0F8AE
:1015C100A3E0F9A3E0FAA3E0FBE4FFFE7D407C4049
:1015D100122019900FC2E0F8A3E0F9A3E0FAA3E00A
:1015E100FB122019900FCAE0F8A3E0F9A3E0FAA3D7
:1015F100E0FB122019900FCEE0F8A3E0F9A3E0FA86
:10160100A3E0FB12201D12237C9008A8EEF0A3EFAB
:10161100F0900FBAE0F8A3E0F9A3E0FAA3E0FBE44D
:10162100FFFE7D807C40122019900FC6E0F8A3E0F8
:10163100F9A3E0FAA3E0FB122019900FCEE0F8A382
:10164100E0F9A3E0FAA3E0FB122019900FD2E0F831
:10165100A3E0F9A3E0FAA3E0FB12201912237C9086
:1016610008AAEEF0A3EFF09008A2E0FFA3E0900239
:1016710000CFF0A3EFF0E4900BECF090108AF09023
:10168100108AE0FFC39405748094805040EF25E0F8
:1016910024A2F582E43408F583E0FEA3E0FF900282
:1016A10000E0FCA3E0FDD3EF9DEC6480F8EE6480E4
:1016B10098401290108AE0FD900200EEF0A3EFF046
:1016C100900BECEDF090108AE004F080B2900BECFE
:1016D100E0247DF582E4340FF583E004F09008A264
:1016E100A3123CDD9008A4A3E02430FBE4FD7F08B5
:1016F100123CE59008A6A3E02430FBE4FD7F0D1227
:101701003CE59008A8A3E02430FB7D017F03123C57
:10171100E59008AAA3E02430FB7D017F08123CE597
:101721007F0D123E2D7F0A123E2D30FC03020D5A11
:101731007FF4123DD9E4900F7DF0A3F0A3F0A3F064
:10174100A3F07B30FD7F01123CE57B3AE4FD7F0293
:10175100123CE5123CDA7B31E4FD7F06123CE57B6D
:101761003AE4FD7F07123CE5900F7EE02430FBE474
:10177100FD7F08123CE57B32E4FD7F0B123CE57BEB
:101781003AE4FD7F0C123CE5900F7FE02430FBE44E
:10179100FD7F0D123CE57B337D017F01123CE57B32
:1017A1003A7D017F02123CE5900F80E02430FB7D01
:1017B100017F03123CE57B347D017F06123CE57B12
:1017C1003A7D017F07123CE5900F81E02430FB7DDB
:0917D100017F08123CE5020D5AEB
:0F3DD9007D527C03ED1D70011C144C70F7DFF15F
:013DE80022B8
:10000300E4FFFEE4FDFC0DBD00010CED64074C7044
:0C001300F50FBF00010EEF64024E70E715
:01001F0022BE
:103D9C0053873F759850438E40538EFE53890F4383
:0D3DAC008920758BDC758DDCC2ABD28E22B8
:083E2D008F993099FDC2992222
:103C74009014BAEBF0A3EAF0A3E9F09014BAE0FBD5
:103C8400A3E0FAA3E0F912255A60179014BAA3E44A
:103C940075F001122610A9F0FA12255AFF123E2DD2
:033CA40080D922A2
:03002300023DE9B2
:0F3DE900C2AC309802C298309902C299D2AC3263
:103376009014A3EBF0A3EAF0A3E9F0A3ECF0FEA30C
:10338600EDF0FF7C037DE81225C4EF2430FF901496
:10339600A3E0FBA3E0FAA3E0F9EF1225A09014A6A0
:1033A600E0FEA3E0FF7C037DE81225C49014A6ECA2
:1033B600F0FEA3EDF0FF7C007D641225C4EF2430FF
:1033C600FF9014A3E0FBA3E475F0011225FAA9F01F
:1033D600FAEF1225A09014A6E0FEA3E0FF7C007D84
:1033E600641225C49014A6ECF0FEA3EDF0FF7C0059
:1033F6007D0A1225C4EF2430FF9014A3E0FBA3E45A
:1034060075F0011225FAA9F0FAEF1225A09014A67C
:10341600E0FEA3E0FF7C007D0A1225C49014A6EC12
:10342600F0A3EDF02430FF9014A3E0FBA3E475F0C5
:0B343600011225FAA9F0FAEF0225A010
:103A84009014A8EBF0A3EAF0A3E9F0A3ECF0FEA3F2
:103A9400EDF0FF7C007D0A1225C4EF2430FF901462
:103AA400A8E0FBA3E0FAA3E0F9EF1225A09014AB81
:103AB400E0FEA3E0FF7C007D0A1225C49014ABEC69
:103AC400F0A3EDF02430FF9014A8E0FBA3E475F01C
:0B3AD400011225FAA9F0FAEF0225A06C
:0F3DF800D295D294120003C295120003C29422F6
:0C3E1500C295D294120003D29502000363
:0E3E0700A2019295D294120003C2940200030D
:0C3E2100D294120003A295C29402000388
:053C4000901454EFF0A8
:103C4500E4A3F0901455E0C3940874809480501C4C
:103C5500901454E0FF25E0F09295D294120003C22F
:0F3C650094120003901455E004F080D7023E2122
:103ADF00E4901455F0D295901454F0901454E0C320
:103AEF009408748094805025A3E0FF25E0F0D294D1
:103AFF00120003901455E0FFA295E433FEEF4EF051
:103B0F00C294120003901454E004F080CE90145528
:023B1F00E0FFC5
:013B21002281
:103D5600901450EFF0A3EDF0123DF87FD0123C40E6
:103D6600901450E0FF123C40901451E0FF123C408A
:033D7600023E15F5
:053CA700901452EFF043
:103CAC00123DF87FD0123C40901452E0FF123C4081
:103CBC00123DF87FD1123C40123ADF901453EFF0D2
:0D3CCC00D201123E07123E15901453E0FF86
:013CD90022C8
:103D7900E4FD7F6B123D567D077F07123D567D049A
:103D89007F04123D567D187F18123D567D1C7F1CFD
:033D9900023D5692
:053D3000901450EFF0BB
:103D3500123CA7901451EFF0901450E004FF123C90
:103D4500A7AD07901451E0FE7C00E42DFFEC3EFE8C
:013D5500224B
:103B98007B017A14799BAD07AC06123A84E4901441
:103BA800BDF09014BDE0FFC3940274809480501758
:103BB800749B2FF582E43414F583E0FF123E2D90B8
:073BC80014BDE004F080DBF6
:013BCF0022D3
:103BD0007B017A147997AD07AC06123376E4901422
:103BE000BEF09014BEE0FFC394047480948050171C
:103BF00074972FF582E43414F583E0FF123E2D9084
:073C000014BEE004F080DBBC
:013C0700229A
:102EE6009014ADEBF0A3EAF0A3E9F0A3ECF0A3EDA8
:102EF600F0C3EC6480948050249014B0E0FEA3E00C
:102F0600FFC3E49FFFE49E9014B0F0A3EFF090148B
:102F1600ADE0FBA3E0FAA3E0F9742D800D9014ADAB
:102F2600E0FBA3E0FAA3E0F974201225A09014B008
:102F3600E0FEA3E0FF7C277D101225C4EF2430FFBE
:102F46009014ADE0FBA3E475F0011225FAA9F0FA9E
:102F5600EF1225A09014B0E0FEA3E0FF7C277D10C1
:102F66001225C49014B0ECF0FEA3EDF0FF7C037DB7
:102F7600E81225C4EF2430FF9014ADE0FBA3E475FE
:102F8600F0011225FAA9F0FAEF1225A09014B0E08C
:102F9600FEA3E0FF7C037DE81225C49014B0ECF09C
:102FA600FEA3EDF0FF7C007D641225C4EF2430FF04
:102FB6009014ADE0FBA3E475F0011225FAA9F0FA2E
:102FC600EF1225A09014B0E0FEA3E0FF7C007D6424
:102FD6001225C49014B0ECF0FEA3EDF0FF7C007D4A
:102FE6000A1225C4EF2430FF9014ADE0FBA3E4756C
:102FF600F0011225FAA9F0FAEF1225A09014B0E01C
:10300600FEA3E0FF7C007D0A1225C49014B0ECF00C
:10301600A3EDF02430FF9014ADE0FBA3E475F001BE
:0A3026001225FAA9F0FAEF0225A026
:103C08007B017A147991AD07AC06122EE6E4901484
:103C1800BFF09014BFE0FFC39406748094805017DF
:103C280074912FF582E43414F583E0FF123E2D9051
:073C380014BFE004F080DB83
:013C3F002262
:102016000223E8E86480F8E933E83360110460F0ED
:10202600ED33EC337009E8FCE9FDEAFEEBFF220430
:1020360060DED3EB9FEA9EE99DE8C2E78CF0C2F72B
:1020460095F0400CE8CCF8E9CDF9EACEFAEBCFFBF7
:102056001223B385D0F05804700320D5B3E804707A
:10206600075002B2D50223F292D5EC0460F7E4CC15
:10207600C0E0C398F8603B94186008400DD0E0FBC0
:102086000223CAE4FBFAC9FC8028E830E406E4C966
:10209600FBE4CAFCE830E305E4C9CACBFCE8540714
:1020A6006010F8C3E913F9EA13FAEB13FBEC13FC1F
:1020B600D8F130F52FC3E49CFCEF9BFFEE9AFEEDC2
:1020C60099FDD0E0FBEF4E4D4C701222DB0302234C
:1020D600EFEC2CFCEF33FFEE33FEED33FDED30E796
:1020E600EB0223CAEF2BFFEE3AFEED39FDD0E0FB03
:1020F60050130BBB00030223F2ED13FDEE13FEEFAC
:0821060013FFEC13FC0223CAD5
:10210E00EC4D6011E8497017ED33EC3304600DE4CB
:10211E00FCFFFEFD22E933E8330470F80223E812D7
:10212E0023B358046009E4CC2481500628500902D8
:10213E0023F22840030223EFC0E0EB4A7044B9803B
:10214E0006D0E0FB0223DEEF4E701CBD8008EBFFD5
:10215E00EAFEE9FD80EBE98DF0A4FEE5F00221F741
:10216E00E9CDF9EAFEEBFFEF89F0A4FCE5F0CE89AC
:10217E00F0A42EFFE435F0CD89F0A42DFEE435F069
:10218E008067EF4E7005BD80D780C3EF8BF0A4AC97
:10219E00F0EE8BF0A42CFCE435F0F8EF8AF0A42CD2
:1021AE00E5F038FCE433CB8DF0A42CFCE5F03BF8E5
:1021BE00EE8AF0A42CFCE5F038F8E433CF89F0A4D5
:1021CE002CFCE5F038CF3400CE89F0A42FFFE5F0DB
:1021DE003EFEE433C98DF0A42EFEE5F039CD8AF033
:1021EE00A42FFFE5F03EFEE43DFD33D0E0FB5007AB
:1021FE000BBB000F0223F2EC2CFCEF33FFEE33FE91
:06220E00ED33FD0223CABE
:102214000223F2EC5D046005E8590470030223E82C
:102224001223B3580460F6EC4860F2EC7004FDFE2F
:10223400FF22C860DB2481C85009C398600250069D
:102244000223EF9850CAF582E9294B4A7005AB8204
:102254000223DE75F0007C1A7880C3EF9BEE9AEDC2
:1022640099400DC3EF9BFFEE9AFEED99FDE842F015
:10227400DC23ACF0D0E0FFD0E0FED0E0FDAB822068
:10228400E7101BEB60BAEC2CFCEF33FFEE33FEEDF2
:1022940033FD0223CAE803F830E705C0F075F00007
:1022A400EF2FFFEE33FEED33FD40B830E7C280AAD6
:1022B40074F8CC6480CCC86480C8F58204604FC3D1
:1022C400EB9FF5F0EA9E42F0E99D42F0E89C45F070
:1022D400603C501DE5825FFFE582D313CB5BCBF4FA
:1022E4002B5582FB50280ABA002409B90020088023
:1022F4001DE5825BFBE582D313CF5FCFF4C3132FBD
:102304005582FF50090EBE00050DBD00010CC3EB44
:102314009FF5F0EA9E42F0E99D42F0E89C45F060AA
:0923240007CC4820E701B3EC22CC
:10232D00ED33EC33600A047003BD8004ECB2E7FCBE
:01233D00227D
:10233E0075F020800E75F010800575F0087D007E1A
:10234E00007F003392D530D503122626EC33401091
:10235E00EF33FFEE33FEED33FDEC33FCD5F0ED2223
:0E236E00E5F0247EA2D513CC92E7CDCEFF225F
:10237C00EDD2E7CD33EC3392D524814006E4FFFE59
:10238C00FDFC22FCE4CFCECDCC24E0501174FF80B8
:10239C00EDC3CC13CCCD13CDCE13CECF13CF047055
:0723AC00F030D5DE02262609
:1035C4000223E822EDA2E7D2E7F9EC3340F260F3FC
:1035D400B4FF08ED547F70E80223F2F82481C2E0BE
:1035E400C0E0F40428FAC313FCED92E7FD9014B292
:1035F400122710EEA2E7E9BA7F02C3133400940045
:10360400FA75F091A4E5F013F494FE8AF0A433E57E
:10361400F033248CD313FDE492E7FE7F007C3F75E6
:103624008302ECC0E0F8EDC0E0F9EEC0E0FAEFC0D0
:10363400E0FB8583F09014B21226A885F083122251
:1036440017D0E0FBD0E0FAD0E0F9D0E0F812201D6A
:10365400ED6480FD30E7011CD583C7ED33CC33F82E
:0C366400D0E0A2E71328C313CC13FD2212
:102BF8003A70FA83BCAAE9E43E81E0F8BF9DE9E6B1
:102C08003F80000039283C1ABB9969663DA335E32B
:102C1800BF255DE73FC90FDB418DDBCCC44936EEEC
:102C280045C9913FC5B0F83D3F800000C317F53452
:102C3800452FFA73C60AFDDD122D0104A2E19200A8
:102C48001420E015902BF874041224178030122DEC
:102C58000130E102B20020E0EBA883A9829014B60B
:102C680012271089828883902C0C740412241785EB
:102C780082F09014B61226C485F08212210EED4C13
:102C88006007300004EC6480FC22122D01C0E0A82B
:102C980083A9829014B612271089828883902C30D9
:102CA80074031224178582F09014B61226C485F096
:102CB8008212210E9014B6E0CCF0A3E0CDF0A3E090
:102CC800CEF0A3E0CFF0902C207403122417D0820A
:102CD8008582F09014B61226C485F082E58230E031
:102CE80007122217B2008096EFCBFFEECAFEEDC99D
:102CF800FDECC8FC1222178085ED33EC547FCC33F1
:102D0800920024605007D0E0D0E00223E87B837A69
:102D1800F97922783E12210EEDF933ECF83324814B
:102D28005011EFFBEEFA12237C12233EECB2E7FCC3
:102D380012201DED33EC33602F2403F8C313FCED90
:102D480092E7FDE82481E4501FECF8EDF9EEFAEF84
:102D5800FB12237CEF04C2E0FCF582122348ECB29C
:102D6800E7FC12201DE58203FAED33EC336007140B
:082D780013FCED92E7FDEA22D5
:102D8000901481122710E4FFFE7D807C3F90148117
:102D9000E0F8A3E0F9A3E0FAA3E0FB1222B4700686
:102DA000901481022EDA901481E0FCA3E0FDA3E0F0
:102DB000FEA3E0FF1223FDFBA3E0FCA3E0FDA3E0E4
:102DC000FEA3E0FF1223FDFFB40108E4FFFE7D80B7
:102DD0007C3F22EF64046029EB64046024EBB401BF
:102DE00030E4FFFEFDFC901485E0F8A3E0F9A3E0D9
:102DF000FAA3E0FB1222B460084006E4FFFEFDFCEB
:102E00002290148512271CFFFFFFFF901485022ECD
:102E1000DAE4901489F0A3F0FFFEFDFC901481E049
:102E2000F8A3E0F9A3E0FAA3E0FB1222B4505F900C
:102E30001485E0FCA3E0FDA3E0FEA3E0FF12237CE9
:102E4000901489EEF0A3EFF0FDCCEECCEC1223430E
:102E5000C8ECC8C9EDC9CAEECACBEFCB901485E067
:102E6000FCA3E0FDA3E0FEA3E0FF122019E4FBFABF
:102E7000F9F81222B4708A901481E0FCA3E0FDA35B
:102E8000E0FEA3E0FF12232D90148112271090146E
:102E900081E0FCA3E0FDA3E0FEA3E0FF123064901C
:102EA0001485E0F8A3E0F9A3E0FAA3E0FB12210EF9
:102EB00012392E90148512271090148AE030E017F2
:102EC000901485E0FCA3E0FDA3E0FEA3E0FF122345
:102ED0002D901485122710901485E0FCA3E0FDA32B
:062EE000E0FEA3E0FF226A
:1023B300E9D2E7C933E833F892D5EDD2E7CD33EC70
:0723C30033FC5002B2D522E9
:1023CA00EC30E7100FBF000C0EBE00080DBD000474
:1023DA000BEB6014A2D5EB13FCED92E7FD2274FF20
:1023EA00FCFDFEFF22E480F8A2D574FF13FC7D8079
:0323FA00E480EF8D
:1023FD00ED33EC33601004700FED547F70057402F3
:0A240D0092E0227404220422E4226B
:10241700C0E0EFFBEEFAEDF9ECF812210ED0E0F593
:10242700F0EFFBEEFAEDF9ECF81226B4A3A3A3A3A1
:10243700E8C0E0E9C0E0EAC0E0EBC0E0C0F012218C
:102447000E1226D0A3A3A3A312201DD0F0D0E0FB29
:0D245700D0E0FAD0E0F9D0E0F8D5F0D422C2
:1038F60033DA929E35B16011377FE5FE392184892E
:103906003AAEC3FF3C1D955B3D6358473E75FDF0DF
:103916003F3172183F800000C2D50223F20223E82D
:10392600BD80FA50F30223EFED33EC330460F17BF4
:103936003B7AAA79B8783F12210EED33EC3392D553
:10394600247B5011A2D570DB500BED44802404502B
:1039560004A2D580CEEFFBEEFAEDF9ECF812237C4B
:10396600EFF582F404FC12234812201DC082903821
:10397600F67409122426ED33CC33D0F092D525F017
:0A398600A2D57001C313CC13FD227B
:103030003E9248DA3ECCCCCD3F2AAAAB40000000FD
:103040003F8000003F9837F03FB504F33FD744FC82
:103050003E3172173EB172173F0515913EDE5BD9C6
:10306000D2018002C201EDD2E7F8CD33EC33047017
:103070000BBD800592D50223F20223E840FBD31456
:1030800060F2F5F07C3FEE7A00C39496C8948B40D2
:10309000230AC89469C8941A401A0AC89468C89444
:1030A0001F40110AC8945AC89425400805F07A00B8
:1030B000CDC2E7CDC0F090148B122710EA2323C0B5
:1030C000E02440F582E43430F5831226D012201D2E
:1030D000ECC0E0EDC0E0EEC0E0EFC0E01226B4903E
:1030E000148B1226C4122019D0E0FBD0E0FAD0E0F5
:1030F000F9D0E0B2E7F812221790148B1227109043
:103100003030740312241790148B1226C412210E2F
:10311000D0E0600F244CF582E43430F5831226D0E1
:1031200012201D90148B122710D0E0C3947FFDE471
:103130009400FC1223437B187A727931783F122174
:103140000E90148B1226C412201D30010B7BD97AED
:093150005B79DE783E12210E22AB
:0300000002399032
:0C399000787FE4F6D8FD7581200239D75D
:10246400E709F608DFFA8046E709F208DFFA803E5A
:1024740088828C83E709F0A3DFFA8032E309F60847
:10248400DFFA8078E309F208DFFA807088828C83AF
:10249400E309F0A3DFFA806489828A83E0A3F60863
:1024A400DFFA805889828A83E0A3F208DFFA804C3D
:1024B40080D280FA80C680D4806980F28033801014
:1024C40080A680EA809A80A880DA80E280CA80337D
:1024D40089828A83ECFAE493A3C8C582C8CCC583F5
:1024E400CCF0A3C8C582C8CCC583CCDFE9DEE780C5
:1024F4000D89828A83E493A3F608DFF9ECFAA9F044
:10250400EDFB2289828A83ECFAE0A3C8C582C8CC99
:10251400C583CCF0A3C8C582C8CCC583CCDFEADEB2
:10252400E880DB89828A83E493A3F208DFF980CC14
:1025340088F0EF60010E4E60C388F0ED2402B4040D
:102544000050B9F582EB2402B4040050AF232345B4
:0625540082239024B47301
:10255A00BB010689828A83E0225002E722BBFE027F
:09256A00E32289828A83E49322B2
:10257300BB010CE58229F582E5833AF583E022501D
:1025830006E92582F8E622BBFE06E92582F8E22267
:0D259300E58229F582E5833AF583E4932281
:1025A000BB010689828A83F0225002F722BBFE011A
:0225B000F32214
:1025B200EF8DF0A4A8F0CF8CF0A428CE8DF0A42E3D
:0225C200FE22F7
:1025C400C2D5EC30E709B2D5E4C39DFDE49CFCEE32
:1025D40030E715B2D5E4C39FFFE49EFE122773C310
:1025E400E49DFDE49CFC800312277330D507C3E40B
:0625F4009FFFE49EFE22A1
:1025FA00C5F0F8A3E028F0C5F0F8E582158270026C
:06260A001583E038F02208
:10261000A3F8E0C5F025F0F0E5821582700215837D
:06262000E0C838F0E822DA
:0E262600C3E49FFFE49EFEE49DFDE49CFC22C5
:10263400BB010789828A830226A85005E9F802278C
:10264400C8BBFE05E9F80227D489828A830226B42E
:10265400BB010DE58229F582E5833AF5830226A8BC
:102664005007E92582F80227C8BBFE07E92582F84E
:102674000227D4E58229F582E5833AF5830226B45C
:10268400BB010DE58229F582E5833AF58302271023
:102694005007E92582F80227FABBFE07E92582F8EC
:0426A40002280622E0
:0C26A800E0FCA3E0FDA3E0FEA3E0FF22A5
:1026B400E493FC740193FD740293FE740393FF226C
:0C26C400E0F8A3E0F9A3E0FAA3E0FB2299
:1026D000E493F8740193F9740293FA740393FB2260
:1026E000BB010DE58229F582E5833AF5830226C414
:1026F0005007E92582F80227E0BBFE07E92582F8AA
:102700000227EDE58229F582E5833AF5830226D09A
:0C271000ECF0A3EDF0A3EEF0A3EFF0223C
:10271C00A8828583F0D083D08212273312273312FC
:10272C002733122733E473E493A3C583C5F0C58321
:10273C00C8C582C8F0A3C583C5F0C583C8C582C807
:01274C00226A
:10274D00BB010789828A8302271C5005E9F80228FC
:0A275D0012BBFE05E9F802282B224A
:0C276700A42582F582E5F03583F583227D
:10399C00020CA1E493A3F8E493A34003F68001F294
:1039AC0008DFF48029E493A3F85407240CC8C3332C
:1039BC00C4540F4420C8834004F456800146F6DFFB
:1039CC00E4800B01020408102040809017DAE47E9A
:1039DC00019360BCA3FF543F30E509541FFEE493F0
:1039EC00A360010ECF54C025E060A840B8E493A3B7
:1039FC00FAE493A3F8E493A3C8C582C8CAC583CAE2
:103A0C00F0A3C8C582C8CAC583CADFE9DEE780BE99
:0120150000CA
:10277300BC000BBE0029EF8DF084FFADF022E4CC4A
:10278300F875F008EF2FFFEE33FEEC33FCEE9DEC13
:10279300984005FCEE9DFE0FD5F0E9E4CEFD22ED59
:1027A300F8F5F0EE8420D21CFEADF075F008EF2FA3
:1027B300FFED33FD4007985006D5F0F222C398FD94
:0527C3000FD5F0EA2231
:0C27C800E6FC08E6FD08E6FE08E6FF223D
:0C27D400E2FC08E2FD08E2FE08E2FF2241
:0D27E000E6FB08E6F908E6FA08E6CBF82269
:0D27ED00E2FB08E2F908E2FA08E2CBF8226C
:0C27FA00ECF608EDF608EEF608EFF6220B
:0C280600ECF208EDF208EEF208EFF2220E
:10281200D083D082E493F608740193F6087402938D
:09282200F608740393F6740473C4
:10282B00D083D082E493F208740193F2087402937C
:09283B00F208740393F2740473B3
:00000001FF
